{
  "transactions": [
    {
      "hash": "0x42defe284d45516d7b9b48a044877648d12f6199534e7ff40bc3ea44a5d6e6dc",
      "transactionType": "CALL",
      "contractName": null,
      "contractAddress": "0x280d050d3a7c7a86694e99f339bdae1734118f54",
      "function": "diamondCut((address,uint8,bytes4[])[],address,bytes)",
      "arguments": [
        "[(0x0000000000000000000000000000000000000000, 2, [0x2e19fad9, 0x75b31085])]",
        "0x0000000000000000000000000000000000000000",
        "0x"
      ],
      "transaction": {
        "from": "0xacc34513d10bd5c57109bf83a8754856ff0b0eb0",
        "to": "0x280d050d3a7c7a86694e99f339bdae1734118f54",
        "gas": "0x3e497",
        "value": "0x0",
        "input": "0x1f931c1c0000000000000000000000000000000000000000000000000000000000000060000000000000000000000000000000000000000000000000000000000000000000000000000000000000000000000000000000000000000000000000000001600000000000000000000000000000000000000000000000000000000000000001000000000000000000000000000000000000000000000000000000000000002000000000000000000000000000000000000000000000000000000000000000000000000000000000000000000000000000000000000000000000000000000002000000000000000000000000000000000000000000000000000000000000006000000000000000000000000000000000000000000000000000000000000000022e19fad90000000000000000000000000000000000000000000000000000000075b31085000000000000000000000000000000000000000000000000000000000000000000000000000000000000000000000000000000000000000000000000",
        "nonce": "0x37",
        "chainId": "0x66eee"
      },
      "additionalContracts": [],
      "isFixedGasLimit": false
    }
  ],
  "receipts": [
    {
      "status": "0x1",
      "cumulativeGasUsed": "0x24a2fa",
      "logs": [
        {
          "address": "0x280d050d3a7c7a86694e99f339bdae1734118f54",
          "topics": [
            "0x8faa70878671ccd212d20771b795c50af8fd3ff6cf27f4bde57e5d4de0aeb673"
          ],
          "data": "0x0000000000000000000000000000000000000000000000000000000000000060000000000000000000000000000000000000000000000000000000000000000000000000000000000000000000000000000000000000000000000000000001600000000000000000000000000000000000000000000000000000000000000001000000000000000000000000000000000000000000000000000000000000002000000000000000000000000000000000000000000000000000000000000000000000000000000000000000000000000000000000000000000000000000000002000000000000000000000000000000000000000000000000000000000000006000000000000000000000000000000000000000000000000000000000000000022e19fad90000000000000000000000000000000000000000000000000000000075b31085000000000000000000000000000000000000000000000000000000000000000000000000000000000000000000000000000000000000000000000000",
          "blockHash": "0x54875209f446170644bfc4429e6365f8539c3ebaa3dbcaff21967811a746bb42",
          "blockNumber": "0x793bf64",
          "transactionHash": "0x42defe284d45516d7b9b48a044877648d12f6199534e7ff40bc3ea44a5d6e6dc",
          "transactionIndex": "0x2",
          "logIndex": "0x1",
          "removed": false
        }
      ],
      "logsBloom": "0x00000000000000000000000000000020000000000000000000000000000000000000000000000000000000000000000000000000000000000000000000000000000000000000000000000000000000000000000001000000000800000000000000000000000000000000000000000000000000000000000000000000000000000020000000000000000000000000000020000000000000000000000000000000000000000000000000000000000000000000000000000000000000000000000000000000000000000000000000000000000000000000000000000000002000000000000000000000000000000000000000000000000000000000000000000000",
      "type": "0x2",
      "transactionHash": "0x42defe284d45516d7b9b48a044877648d12f6199534e7ff40bc3ea44a5d6e6dc",
      "transactionIndex": "0x2",
      "blockHash": "0x54875209f446170644bfc4429e6365f8539c3ebaa3dbcaff21967811a746bb42",
      "blockNumber": "0x793bf64",
      "gasUsed": "0x26d7a",
      "effectiveGasPrice": "0x5f5e100",
      "from": "0xacc34513d10bd5c57109bf83a8754856ff0b0eb0",
      "to": "0x280d050d3a7c7a86694e99f339bdae1734118f54",
      "contractAddress": null,
      "gasUsedForL1": "0x1a26e",
      "l1BlockNumber": "0x76bce0",
      "timeboosted": false
    }
  ],
  "libraries": [],
  "pending": [],
  "returns": {},
  "timestamp": 1740473046,
  "chain": 421614,
  "commit": "d441714"
}