{
  "transactions": [
    {
      "hash": "0x21d8cbac579ccff35c3d4148b3f070e847351a75d05381f62bc2af6567bdd21e",
      "transactionType": "CREATE",
      "contractName": "ContentPaymentFacet",
      "contractAddress": "0x625655b29cb2e870ac93e90f88ba01846c32080c",
      "function": null,
      "arguments": null,
      "transaction": {
        "from": "0xacc34513d10bd5c57109bf83a8754856ff0b0eb0",
        "gas": "0x6cbe1f",
        "value": "0x0",
        "input": "0x608080604052346015576108a7908161001a8239f35b5f80fdfe60806040526004361015610011575f80fd5b5f358060e01c9081632b35c6ed146105bd5781632e19fad91461049f5781634ccf1b34146103f95781636a490ca71461037d57816375b310851461010557506376cdbb091461005e575f80fd5b3461010157602036600319011261010157610077610652565b61007f61074e565b6001600160a01b03811680156100f2575f5160206108525f395f51905f5280546001600160a01b0319169091179055604080513381526001600160a01b0390921660208301527fb4fba53697ccdfc7351e474efe962f4fd5e5f30a8f8da7ef08b5e211cea4330d9190819081015b0390a1005b63d92e233d60e01b5f5260045ffd5b5f80fd5b34610101576101003660031901126101015761011f610652565b90610128610668565b604435916001600160a01b03831691828403610101576064359360843567ffffffffffffffff8111610101576101629036906004016106b4565b925a9063ffffffff60e01b165f527f0f42d8c723f87f8ec4e713dc7823d60583c83de33739a2752db62c15ca48619c60205260405f20335f52602052600160ff60405f20541615150361036e57851561035f576101ce6101c660c43560a435610832565b915a9061071d565b937f70a71eba35f94eb7d444a54454d72cf5427a39a5c1ba5867c06c31e19a1ede1554850180951161034b5760409761022b61033c937f173e118c5e025f0070acfaca7a19616651599fb907e99d176447ac195383cf539761070a565b9761023860e4358a61070a565b9761028b61271061026a7f70a71eba35f94eb7d444a54454d72cf5427a39a5c1ba5867c06c31e19a1ede14548561070a565b6001600160a01b0390951697940493610283858561071d565b908989610790565b5f5160206108525f395f51905f52546102b09084906001600160a01b03168989610790565b7f70a71eba35f94eb7d444a54454d72cf5427a39a5c1ba5867c06c31e19a1ede17545f5160206108525f395f51905f52546102fb918b916001600160a01b03908116918b9116610790565b8a51968796338852602088015260018060a01b03168b8701526060860152608085015260a08401528560c084015261010060e084015261010083019061072a565b0390a182519182526020820152f35b634e487b7160e01b5f52601160045260245ffd5b6311e51d5160e31b5f5260045ffd5b63be24598360e01b5f5260045ffd5b34610101576020366003190112610101577f5f6010b04622c73f4907621238210c6d87a08f5e0892b7275c1dd1f5adc1bfcb6100ed6004356103bd61074e565b7f70a71eba35f94eb7d444a54454d72cf5427a39a5c1ba5867c06c31e19a1ede1581905560408051338152602081019290925290918291820190565b3461010157602036600319011261010157610412610652565b61041a61074e565b6001600160a01b03811680156100f2577f70a71eba35f94eb7d444a54454d72cf5427a39a5c1ba5867c06c31e19a1ede1780546001600160a01b0319169091179055604080513381526001600160a01b0390921660208301527f5efdfedf5aef119c431263f0656093045dffdf44b3d8f1b0f158dc295c3a0f8e9190819081016100ed565b34610101576080366003190112610101576104b8610652565b6104c0610668565b60443560643567ffffffffffffffff8111610101576104e39036906004016106b4565b92811561035f577f8d0db2b930e80e97562f5f7aea7b17f0c7af49468f4b57c84945daf31676ebb8936100ed9161271061053e7f70a71eba35f94eb7d444a54454d72cf5427a39a5c1ba5867c06c31e19a1ede14548661070a565b6001600160a01b039092169491049061056261055a838361071d565b873388610790565b5f5160206108525f395f51905f52546105879083906001600160a01b03163388610790565b604051958695865233602087015260018060a01b031660408601526060850152608084015260c060a084015260c083019061072a565b34610101576020366003190112610101576004356105d961074e565b6127108111610641577f70a71eba35f94eb7d444a54454d72cf5427a39a5c1ba5867c06c31e19a1ede148190556040805133815260208101929092527f431b1fb304d83b237225a0d2f3528fe710bc3ab129071bc80802afcbacd877339190819081016100ed565b6209828560e11b5f5260045260245ffd5b600435906001600160a01b038216820361010157565b602435906001600160a01b038216820361010157565b90601f8019910116810190811067ffffffffffffffff8211176106a057604052565b634e487b7160e01b5f52604160045260245ffd5b81601f820112156101015780359067ffffffffffffffff82116106a057604051926106e9601f8401601f19166020018561067e565b8284526020838301011161010157815f926020809301838601378301015290565b8181029291811591840414171561034b57565b9190820391821161034b57565b805180835260209291819084018484015e5f828201840152601f01601f1916010190565b7fc8fcad8db84d3cc18b4c41d551ea0ee66dd599cde068d998e57d5e09332c1320546001600160a01b0316330361078157565b63bfcafd3760e01b5f5260045ffd5b6040516323b872dd60e01b60208083019182526001600160a01b039485166024840152949093166044820152606480820195909552938452925f91906107d760848261067e565b519082855af115610827575f513d61081e57506001600160a01b0381163b155b6107fe5750565b635274afe760e01b5f9081526001600160a01b0391909116600452602490fd5b600114156107f7565b6040513d5f823e3d90fd5b9080821461084d57480180821015610848575090565b905090565b509056fe70a71eba35f94eb7d444a54454d72cf5427a39a5c1ba5867c06c31e19a1ede16a26469706673582212202d8ff3e0b8fbce53f4557529ea45ba49a732d4604500c47e75955f831226c37c64736f6c634300081c0033",
        "nonce": "0x30",
        "chainId": "0x66eee"
      },
      "additionalContracts": [],
      "isFixedGasLimit": false
    },
    {
      "hash": "0x27ceff2962bc5f7b70d6bd784195a1095cff41100e545ce4a629741b728cc883",
      "transactionType": "CALL",
      "contractName": null,
      "contractAddress": "0x280d050d3a7c7a86694e99f339bdae1734118f54",
      "function": "diamondCut((address,uint8,bytes4[])[],address,bytes)",
      "arguments": [
        "[(0x625655b29Cb2E870ac93e90F88BA01846c32080c, 0, [0x76cdbb09, 0x4ccf1b34, 0x2b35c6ed, 0x6a490ca7, 0x2e19fad9, 0x75b31085])]",
        "0x0000000000000000000000000000000000000000",
        "0x"
      ],
      "transaction": {
        "from": "0xacc34513d10bd5c57109bf83a8754856ff0b0eb0",
        "to": "0x280d050d3a7c7a86694e99f339bdae1734118f54",
        "gas": "0x5e781",
        "value": "0x0",
        "input": "0x1f931c1c0000000000000000000000000000000000000000000000000000000000000060000000000000000000000000000000000000000000000000000000000000000000000000000000000000000000000000000000000000000000000000000001e000000000000000000000000000000000000000000000000000000000000000010000000000000000000000000000000000000000000000000000000000000020000000000000000000000000625655b29cb2e870ac93e90f88ba01846c32080c00000000000000000000000000000000000000000000000000000000000000000000000000000000000000000000000000000000000000000000000000000060000000000000000000000000000000000000000000000000000000000000000676cdbb09000000000000000000000000000000000000000000000000000000004ccf1b34000000000000000000000000000000000000000000000000000000002b35c6ed000000000000000000000000000000000000000000000000000000006a490ca7000000000000000000000000000000000000000000000000000000002e19fad90000000000000000000000000000000000000000000000000000000075b31085000000000000000000000000000000000000000000000000000000000000000000000000000000000000000000000000000000000000000000000000",
        "nonce": "0x31",
        "chainId": "0x66eee"
      },
      "additionalContracts": [],
      "isFixedGasLimit": false
    },
    {
      "hash": "0x6ef1984088efdcb80f897e86bc8ad1bf20032d7eb0355d9249a26522e8f4381d",
      "transactionType": "CALL",
      "contractName": null,
      "contractAddress": "0x280d050d3a7c7a86694e99f339bdae1734118f54",
      "function": "updateContentTreasury(address)",
      "arguments": [
        "0xaCc34513D10bd5c57109bF83A8754856FF0b0eb0"
      ],
      "transaction": {
        "from": "0xacc34513d10bd5c57109bf83a8754856ff0b0eb0",
        "to": "0x280d050d3a7c7a86694e99f339bdae1734118f54",
        "gas": "0x12b53",
        "value": "0x0",
        "input": "0x76cdbb09000000000000000000000000acc34513d10bd5c57109bf83a8754856ff0b0eb0",
        "nonce": "0x32",
        "chainId": "0x66eee"
      },
      "additionalContracts": [],
      "isFixedGasLimit": false
    },
    {
      "hash": "0xbd520449006aeb5b1e0317aed9b35bc75c92df499fe40397e42e1cefdfb32142",
      "transactionType": "CALL",
      "contractName": null,
      "contractAddress": "0x280d050d3a7c7a86694e99f339bdae1734118f54",
      "function": "updatePaymentToken(address)",
      "arguments": [
        "0xA4e6267D961a6C818FBF038713A8cc071562dC9e"
      ],
      "transaction": {
        "from": "0xacc34513d10bd5c57109bf83a8754856ff0b0eb0",
        "to": "0x280d050d3a7c7a86694e99f339bdae1734118f54",
        "gas": "0x11a3f",
        "value": "0x0",
        "input": "0x4ccf1b34000000000000000000000000a4e6267d961a6c818fbf038713a8cc071562dc9e",
        "nonce": "0x33",
        "chainId": "0x66eee"
      },
      "additionalContracts": [],
      "isFixedGasLimit": false
    },
    {
      "hash": "0x9598bc795f3af07f82784d390f5542c484fe7b533f8b59d9007f3958e0bcd74d",
      "transactionType": "CALL",
      "contractName": null,
      "contractAddress": "0x280d050d3a7c7a86694e99f339bdae1734118f54",
      "function": "updateSurchargeFee(uint256)",
      "arguments": [
        "1000"
      ],
      "transaction": {
        "from": "0xacc34513d10bd5c57109bf83a8754856ff0b0eb0",
        "to": "0x280d050d3a7c7a86694e99f339bdae1734118f54",
        "gas": "0x1289f",
        "value": "0x0",
        "input": "0x2b35c6ed00000000000000000000000000000000000000000000000000000000000003e8",
        "nonce": "0x34",
        "chainId": "0x66eee"
      },
      "additionalContracts": [],
      "isFixedGasLimit": false
    },
    {
      "hash": "0x58d9dee3e8d6121daff193fe14a1555e168304b31bf70b3a86b7a6ff2dce93ef",
      "transactionType": "CALL",
      "contractName": null,
      "contractAddress": "0x280d050d3a7c7a86694e99f339bdae1734118f54",
      "function": "updateBufferPostOp(uint256)",
      "arguments": [
        "21000"
      ],
      "transaction": {
        "from": "0xacc34513d10bd5c57109bf83a8754856ff0b0eb0",
        "to": "0x280d050d3a7c7a86694e99f339bdae1734118f54",
        "gas": "0x128e4",
        "value": "0x0",
        "input": "0x6a490ca70000000000000000000000000000000000000000000000000000000000005208",
        "nonce": "0x35",
        "chainId": "0x66eee"
      },
      "additionalContracts": [],
      "isFixedGasLimit": false
    },
    {
      "hash": "0xf50aea89423dcf3dbfb381281c4e85418335912ac52d4977fc411e33c36945eb",
      "transactionType": "CALL",
      "contractName": null,
      "contractAddress": "0x280d050d3a7c7a86694e99f339bdae1734118f54",
      "function": "setCanExecute(bytes4,address,bool)",
      "arguments": [
        "0x75b31085",
        "0xaCc34513D10bd5c57109bF83A8754856FF0b0eb0",
        "true"
      ],
      "transaction": {
        "from": "0xacc34513d10bd5c57109bf83a8754856ff0b0eb0",
        "to": "0x280d050d3a7c7a86694e99f339bdae1734118f54",
        "gas": "0xf26f0",
        "value": "0x0",
        "input": "0xa4c3366e75b3108500000000000000000000000000000000000000000000000000000000000000000000000000000000acc34513d10bd5c57109bf83a8754856ff0b0eb00000000000000000000000000000000000000000000000000000000000000001",
        "nonce": "0x36",
        "chainId": "0x66eee"
      },
      "additionalContracts": [],
      "isFixedGasLimit": false
    }
  ],
  "receipts": [
    {
      "status": "0x1",
      "cumulativeGasUsed": "0x4931a6",
      "logs": [],
      "logsBloom": "0x00000000000000000000000000000000000000000000000000000000000000000000000000000000000000000000000000000000000000000000000000000000000000000000000000000000000000000000000000000000000000000000000000000000000000000000000000000000000000000000000000000000000000000000000000000000000000000000000000000000000000000000000000000000000000000000000000000000000000000000000000000000000000000000000000000000000000000000000000000000000000000000000000000000000000000000000000000000000000000000000000000000000000000000000000000000",
      "type": "0x2",
      "transactionHash": "0x21d8cbac579ccff35c3d4148b3f070e847351a75d05381f62bc2af6567bdd21e",
      "transactionIndex": "0x1",
      "blockHash": "0x69fafb396b1713659d92cd2f14fdee2b297b2a3bcd6522808f9100f57c98d3ff",
      "blockNumber": "0x793ae2f",
      "gasUsed": "0x4931a6",
      "effectiveGasPrice": "0x5f5e100",
      "from": "0xacc34513d10bd5c57109bf83a8754856ff0b0eb0",
      "to": null,
      "contractAddress": "0x625655b29cb2e870ac93e90f88ba01846c32080c",
      "gasUsedForL1": "0x411285",
      "l1BlockNumber": "0x76bc7f",
      "timeboosted": false
    },
    {
      "status": "0x1",
      "cumulativeGasUsed": "0x109d54",
      "logs": [
        {
          "address": "0x280d050d3a7c7a86694e99f339bdae1734118f54",
          "topics": [
            "0x8faa70878671ccd212d20771b795c50af8fd3ff6cf27f4bde57e5d4de0aeb673"
          ],
          "data": "0x0000000000000000000000000000000000000000000000000000000000000060000000000000000000000000000000000000000000000000000000000000000000000000000000000000000000000000000000000000000000000000000001e000000000000000000000000000000000000000000000000000000000000000010000000000000000000000000000000000000000000000000000000000000020000000000000000000000000625655b29cb2e870ac93e90f88ba01846c32080c00000000000000000000000000000000000000000000000000000000000000000000000000000000000000000000000000000000000000000000000000000060000000000000000000000000000000000000000000000000000000000000000676cdbb09000000000000000000000000000000000000000000000000000000004ccf1b34000000000000000000000000000000000000000000000000000000002b35c6ed000000000000000000000000000000000000000000000000000000006a490ca7000000000000000000000000000000000000000000000000000000002e19fad90000000000000000000000000000000000000000000000000000000075b31085000000000000000000000000000000000000000000000000000000000000000000000000000000000000000000000000000000000000000000000000",
          "blockHash": "0x4b6a6d6e0dfcf1e5a4087b1e41d9e0c6a89f0b781e3dea1ff9fb3a9927bc93d1",
          "blockNumber": "0x793ae36",
          "transactionHash": "0x27ceff2962bc5f7b70d6bd784195a1095cff41100e545ce4a629741b728cc883",
          "transactionIndex": "0x1",
          "logIndex": "0x0",
          "removed": false
        }
      ],
      "logsBloom": "0x00000000000000000000000000000020000000000000000000000000000000000000000000000000000000000000000000000000000000000000000000000000000000000000000000000000000000000000000001000000000800000000000000000000000000000000000000000000000000000000000000000000000000000020000000000000000000000000000020000000000000000000000000000000000000000000000000000000000000000000000000000000000000000000000000000000000000000000000000000000000000000000000000000000002000000000000000000000000000000000000000000000000000000000000000000000",
      "type": "0x2",
      "transactionHash": "0x27ceff2962bc5f7b70d6bd784195a1095cff41100e545ce4a629741b728cc883",
      "transactionIndex": "0x1",
      "blockHash": "0x4b6a6d6e0dfcf1e5a4087b1e41d9e0c6a89f0b781e3dea1ff9fb3a9927bc93d1",
      "blockNumber": "0x793ae36",
      "gasUsed": "0x109d54",
      "effectiveGasPrice": "0x5f5e100",
      "from": "0xacc34513d10bd5c57109bf83a8754856ff0b0eb0",
      "to": "0x280d050d3a7c7a86694e99f339bdae1734118f54",
      "contractAddress": null,
      "gasUsedForL1": "0xc5706",
      "l1BlockNumber": "0x76bc7f",
      "timeboosted": false
    },
    {
      "status": "0x1",
      "cumulativeGasUsed": "0x6b627",
      "logs": [
        {
          "address": "0x280d050d3a7c7a86694e99f339bdae1734118f54",
          "topics": [
            "0xb4fba53697ccdfc7351e474efe962f4fd5e5f30a8f8da7ef08b5e211cea4330d"
          ],
          "data": "0x000000000000000000000000acc34513d10bd5c57109bf83a8754856ff0b0eb0000000000000000000000000acc34513d10bd5c57109bf83a8754856ff0b0eb0",
          "blockHash": "0x38150f3a815c44ffb2a41c9d1b83a5ba22f358b8a6525d2d1c88903084bde9be",
          "blockNumber": "0x793ae3f",
          "transactionHash": "0x6ef1984088efdcb80f897e86bc8ad1bf20032d7eb0355d9249a26522e8f4381d",
          "transactionIndex": "0x1",
          "logIndex": "0x0",
          "removed": false
        }
      ],
      "logsBloom": "0x00000000000000000000000000000020000000000000000000000000000000000000000000000000000000000000000000000000000000000000000000000000000000000000000000000000000000000000000000000000000000000000000010000000000000000000000000000000000000000000000000000000000000000400000000000000000000000000000020000000000000000000000000020000000000000000000000000000000000000000000000000000000000000000000000000000000000000000000000000000000000000000000000000000002000000000000000000000000000000000000000000000000000000000000000000000",
      "type": "0x2",
      "transactionHash": "0x6ef1984088efdcb80f897e86bc8ad1bf20032d7eb0355d9249a26522e8f4381d",
      "transactionIndex": "0x1",
      "blockHash": "0x38150f3a815c44ffb2a41c9d1b83a5ba22f358b8a6525d2d1c88903084bde9be",
      "blockNumber": "0x793ae3f",
      "gasUsed": "0x6b627",
      "effectiveGasPrice": "0x5f5e100",
      "from": "0xacc34513d10bd5c57109bf83a8754856ff0b0eb0",
      "to": "0x280d050d3a7c7a86694e99f339bdae1734118f54",
      "contractAddress": null,
      "gasUsedForL1": "0x5e97c",
      "l1BlockNumber": "0x76bc7f",
      "timeboosted": false
    },
    {
      "status": "0x1",
      "cumulativeGasUsed": "0x299218",
      "logs": [
        {
          "address": "0x280d050d3a7c7a86694e99f339bdae1734118f54",
          "topics": [
            "0x5efdfedf5aef119c431263f0656093045dffdf44b3d8f1b0f158dc295c3a0f8e"
          ],
          "data": "0x000000000000000000000000acc34513d10bd5c57109bf83a8754856ff0b0eb0000000000000000000000000a4e6267d961a6c818fbf038713a8cc071562dc9e",
          "blockHash": "0x4725512bd13e578887836b76bd1ad3214ce327e2b28b0820ad65febe2bb3821a",
          "blockNumber": "0x793ae46",
          "transactionHash": "0xbd520449006aeb5b1e0317aed9b35bc75c92df499fe40397e42e1cefdfb32142",
          "transactionIndex": "0x3",
          "logIndex": "0x6",
          "removed": false
        }
      ],
      "logsBloom": "0x00400000000000000000000000000020000000000000000000000000000000000000000000000000000000000000000000000000000000000000000000000000000000000000000000000000000000000000000000000000000000000000000000000000000000000000000000000000000000000000000000000000000000000000000000008000000000000000000020000000000000000000000000000000000000000000000000000000000000000000000000000000000000000000000000000000000000000000000000000000000000000000000000001000002000000000000000000000000000000000000000000000000000000000000000000000",
      "type": "0x2",
      "transactionHash": "0xbd520449006aeb5b1e0317aed9b35bc75c92df499fe40397e42e1cefdfb32142",
      "transactionIndex": "0x3",
      "blockHash": "0x4725512bd13e578887836b76bd1ad3214ce327e2b28b0820ad65febe2bb3821a",
      "blockNumber": "0x793ae46",
      "gasUsed": "0x6b5d4",
      "effectiveGasPrice": "0x5f5e100",
      "from": "0xacc34513d10bd5c57109bf83a8754856ff0b0eb0",
      "to": "0x280d050d3a7c7a86694e99f339bdae1734118f54",
      "contractAddress": null,
      "gasUsedForL1": "0x5e97c",
      "l1BlockNumber": "0x76bc7f",
      "timeboosted": false
    },
    {
      "status": "0x1",
      "cumulativeGasUsed": "0x6b44e",
      "logs": [
        {
          "address": "0x280d050d3a7c7a86694e99f339bdae1734118f54",
          "topics": [
            "0x431b1fb304d83b237225a0d2f3528fe710bc3ab129071bc80802afcbacd87733"
          ],
          "data": "0x000000000000000000000000acc34513d10bd5c57109bf83a8754856ff0b0eb000000000000000000000000000000000000000000000000000000000000003e8",
          "blockHash": "0x6ec81ea6d7101b0f03f4e5a33cd9f763ddf555efc73754ef890d43e3a471f769",
          "blockNumber": "0x793ae51",
          "transactionHash": "0x9598bc795f3af07f82784d390f5542c484fe7b533f8b59d9007f3958e0bcd74d",
          "transactionIndex": "0x1",
          "logIndex": "0x0",
          "removed": false
        }
      ],
      "logsBloom": "0x00000000000000000000000000000020000000000000000000000000000000000000000000000000000000000000000000000000000000000000000000000000000000000000000000000000000000000000000100000000000000000000000100000000000000000000000000000000000000000000000000000000000000000000000000000000000000000000000020000000000000000000000000000000000000000000000000000000000000000000000000000000000000000000000000000000000000000000000000000000000000000000000000000000002000000000000000000000000000000000000000000000000000000000000100000000",
      "type": "0x2",
      "transactionHash": "0x9598bc795f3af07f82784d390f5542c484fe7b533f8b59d9007f3958e0bcd74d",
      "transactionIndex": "0x1",
      "blockHash": "0x6ec81ea6d7101b0f03f4e5a33cd9f763ddf555efc73754ef890d43e3a471f769",
      "blockNumber": "0x793ae51",
      "gasUsed": "0x6b44e",
      "effectiveGasPrice": "0x5f5e100",
      "from": "0xacc34513d10bd5c57109bf83a8754856ff0b0eb0",
      "to": "0x280d050d3a7c7a86694e99f339bdae1734118f54",
      "contractAddress": null,
      "gasUsedForL1": "0x5e97c",
      "l1BlockNumber": "0x76bc80",
      "timeboosted": false
    },
    {
      "status": "0x1",
      "cumulativeGasUsed": "0x162c26",
      "logs": [
        {
          "address": "0x280d050d3a7c7a86694e99f339bdae1734118f54",
          "topics": [
            "0x5f6010b04622c73f4907621238210c6d87a08f5e0892b7275c1dd1f5adc1bfcb"
          ],
          "data": "0x000000000000000000000000acc34513d10bd5c57109bf83a8754856ff0b0eb00000000000000000000000000000000000000000000000000000000000005208",
          "blockHash": "0x962db01dfc67838afc49fb5cd4e43671e2e509dc2bfe3f8ba06225d02de07362",
          "blockNumber": "0x793ae59",
          "transactionHash": "0x58d9dee3e8d6121daff193fe14a1555e168304b31bf70b3a86b7a6ff2dce93ef",
          "transactionIndex": "0x3",
          "logIndex": "0x4",
          "removed": false
        }
      ],
      "logsBloom": "0x00000000000000000000000000000020000000000000000000000000000000000000000000000000000000000000000000000000000000000000000000000000000000000000000000000000000000000000000000000000000000000000000000000004000000000000000000000000000000000000000000000000000000000000000000000000000000000000000020000000000000000000000400000000000000000000000000000000000000000000000000000000000000000000008000000000000000000000000000000000000000000000000000000000002000000000000000000000000000000000000000000000000000000000000000000000",
      "type": "0x2",
      "transactionHash": "0x58d9dee3e8d6121daff193fe14a1555e168304b31bf70b3a86b7a6ff2dce93ef",
      "transactionIndex": "0x3",
      "blockHash": "0x962db01dfc67838afc49fb5cd4e43671e2e509dc2bfe3f8ba06225d02de07362",
      "blockNumber": "0x793ae59",
      "gasUsed": "0x6b47d",
      "effectiveGasPrice": "0x5f5e100",
      "from": "0xacc34513d10bd5c57109bf83a8754856ff0b0eb0",
      "to": "0x280d050d3a7c7a86694e99f339bdae1734118f54",
      "contractAddress": null,
      "gasUsedForL1": "0x5e97c",
      "l1BlockNumber": "0x76bc80",
      "timeboosted": false
    },
    {
      "status": "0x1",
      "cumulativeGasUsed": "0x953d7",
      "logs": [
        {
          "address": "0x280d050d3a7c7a86694e99f339bdae1734118f54",
          "topics": [
            "0xcdd2f8ab598ea828ea63b4a6cfc86ccf7d40784556f0783753603ba712c83b00",
            "0x000000000000000000000000acc34513d10bd5c57109bf83a8754856ff0b0eb0",
            "0x75b3108500000000000000000000000000000000000000000000000000000000"
          ],
          "data": "0x",
          "blockHash": "0x8f10c37165bdd925ea7759b6dafbd9545149279be6b2b20fb1c4c10d5b3f168f",
          "blockNumber": "0x793ae61",
          "transactionHash": "0xf50aea89423dcf3dbfb381281c4e85418335912ac52d4977fc411e33c36945eb",
          "transactionIndex": "0x1",
          "logIndex": "0x0",
          "removed": false
        },
        {
          "address": "0x280d050d3a7c7a86694e99f339bdae1734118f54",
          "topics": [
            "0xd97cb52d6a919c35d1a9848f69806a32611c1381fa1078e5ea866186ee4c46c7",
            "0x000000000000000000000000acc34513d10bd5c57109bf83a8754856ff0b0eb0",
            "0x75b3108500000000000000000000000000000000000000000000000000000000"
          ],
          "data": "0x",
          "blockHash": "0x8f10c37165bdd925ea7759b6dafbd9545149279be6b2b20fb1c4c10d5b3f168f",
          "blockNumber": "0x793ae61",
          "transactionHash": "0xf50aea89423dcf3dbfb381281c4e85418335912ac52d4977fc411e33c36945eb",
          "transactionIndex": "0x1",
          "logIndex": "0x1",
          "removed": false
        }
      ],
      "logsBloom": "0x00000000000000000000000000000020000002001000000000000000000000000000000000000000000000000000000000000000000000000000000000000000000000000000000000800000000000000000000000000000000000000000000000000000000000000000000000000000000000000000000000002000000400000000000000000002000000000000000020000000000000000000000000000000000000000000000002000000000000000000000000000000080000000000000000000000000000000000000004000020000008000000000000000000002000000000000000000000000000000000000000000000200000000000000000000000",
      "type": "0x2",
      "transactionHash": "0xf50aea89423dcf3dbfb381281c4e85418335912ac52d4977fc411e33c36945eb",
      "transactionIndex": "0x1",
      "blockHash": "0x8f10c37165bdd925ea7759b6dafbd9545149279be6b2b20fb1c4c10d5b3f168f",
      "blockNumber": "0x793ae61",
      "gasUsed": "0x953d7",
      "effectiveGasPrice": "0x5f5e100",
      "from": "0xacc34513d10bd5c57109bf83a8754856ff0b0eb0",
      "to": "0x280d050d3a7c7a86694e99f339bdae1734118f54",
      "contractAddress": null,
      "gasUsedForL1": "0x87dbb",
      "l1BlockNumber": "0x76bc80",
      "timeboosted": false
    }
  ],
  "libraries": [],
  "pending": [],
  "returns": {},
  "timestamp": 1740471870,
  "chain": 421614,
  "commit": "d441714"
}