{
  "transactions": [
    {
      "hash": "0xa4175b66b50778fb2b6904be20c4b84b04bb717cbd884363df287143667c2d01",
      "transactionType": "CREATE",
      "contractName": "ContentPaymentFacet",
      "contractAddress": "0xd7773f49f92f7f19175ad7cedea31ea22a10d3a7",
      "function": null,
      "arguments": null,
      "transaction": {
        "from": "0xacc34513d10bd5c57109bf83a8754856ff0b0eb0",
        "gas": "0x4ae584",
        "value": "0x0",
        "input": "0x608080604052346015576108ab908161001a8239f35b5f80fdfe60806040526004361015610011575f80fd5b5f358060e01c9081632e19fad9146105385781634df826c7146104a3578163572374f3146103fd57816375b31085146101855750806376cdbb09146100e35763fa0386ed1461005e575f80fd5b346100df5760203660031901126100df577f5f6010b04622c73f4907621238210c6d87a08f5e0892b7275c1dd1f5adc1bfcb6100da60043561009e6107f4565b7f70a71eba35f94eb7d444a54454d72cf5427a39a5c1ba5867c06c31e19a1ede1581905560408051338152602081019290925290918291820190565b0390a1005b5f80fd5b346100df5760203660031901126100df576100fc610656565b6101046107f4565b6001600160a01b0381168015610176575f5160206108565f395f51905f5280546001600160a01b0319169091179055604080513381526001600160a01b0390921660208301527fb4fba53697ccdfc7351e474efe962f4fd5e5f30a8f8da7ef08b5e211cea4330d9190819081016100da565b63d92e233d60e01b5f5260045ffd5b346100df576101003660031901126100df5761019f610656565b906101a861066c565b604435916001600160a01b038316918284036100df576064359360843567ffffffffffffffff81116100df576101e29036906004016106b8565b925a9063ffffffff60e01b165f527f0f42d8c723f87f8ec4e713dc7823d60583c83de33739a2752db62c15ca48619c60205260405f20335f52602052600160ff60405f2054161515036103ee5785156103df5761024e61024660c43560a435610836565b915a90610721565b937f70a71eba35f94eb7d444a54454d72cf5427a39a5c1ba5867c06c31e19a1ede155485018095116103cb576040976102ab6103bc937f173e118c5e025f0070acfaca7a19616651599fb907e99d176447ac195383cf539761070e565b976102b860e4358a61070e565b9761030b6127106102ea7f70a71eba35f94eb7d444a54454d72cf5427a39a5c1ba5867c06c31e19a1ede14548561070e565b6001600160a01b03909516979404936103038585610721565b908989610752565b5f5160206108565f395f51905f52546103309084906001600160a01b03168989610752565b7f70a71eba35f94eb7d444a54454d72cf5427a39a5c1ba5867c06c31e19a1ede17545f5160206108565f395f51905f525461037b918b916001600160a01b03908116918b9116610752565b8a51968796338852602088015260018060a01b03168b8701526060860152608085015260a08401528560c084015261010060e084015261010083019061072e565b0390a182519182526020820152f35b634e487b7160e01b5f52601160045260245ffd5b6311e51d5160e31b5f5260045ffd5b63be24598360e01b5f5260045ffd5b346100df5760203660031901126100df57610416610656565b61041e6107f4565b6001600160a01b0381168015610176577f70a71eba35f94eb7d444a54454d72cf5427a39a5c1ba5867c06c31e19a1ede1780546001600160a01b0319169091179055604080513381526001600160a01b0390921660208301527f5efdfedf5aef119c431263f0656093045dffdf44b3d8f1b0f158dc295c3a0f8e9190819081016100da565b346100df5760203660031901126100df576004356104bf6107f4565b6127108111610527577f70a71eba35f94eb7d444a54454d72cf5427a39a5c1ba5867c06c31e19a1ede148190556040805133815260208101929092527f431b1fb304d83b237225a0d2f3528fe710bc3ab129071bc80802afcbacd877339190819081016100da565b6209828560e11b5f5260045260245ffd5b346100df5760803660031901126100df57610551610656565b61055961066c565b60443560643567ffffffffffffffff81116100df5761057c9036906004016106b8565b9281156103df577f8d0db2b930e80e97562f5f7aea7b17f0c7af49468f4b57c84945daf31676ebb8936100da916127106105d77f70a71eba35f94eb7d444a54454d72cf5427a39a5c1ba5867c06c31e19a1ede14548661070e565b6001600160a01b03909216949104906105fb6105f38383610721565b873388610752565b5f5160206108565f395f51905f52546106209083906001600160a01b03163388610752565b604051958695865233602087015260018060a01b031660408601526060850152608084015260c060a084015260c083019061072e565b600435906001600160a01b03821682036100df57565b602435906001600160a01b03821682036100df57565b90601f8019910116810190811067ffffffffffffffff8211176106a457604052565b634e487b7160e01b5f52604160045260245ffd5b81601f820112156100df5780359067ffffffffffffffff82116106a457604051926106ed601f8401601f191660200185610682565b828452602083830101116100df57815f926020809301838601378301015290565b818102929181159184041417156103cb57565b919082039182116103cb57565b805180835260209291819084018484015e5f828201840152601f01601f1916010190565b6040516323b872dd60e01b60208083019182526001600160a01b039485166024840152949093166044820152606480820195909552938452925f9190610799608482610682565b519082855af1156107e9575f513d6107e057506001600160a01b0381163b155b6107c05750565b635274afe760e01b5f9081526001600160a01b0391909116600452602490fd5b600114156107b9565b6040513d5f823e3d90fd5b7fc8fcad8db84d3cc18b4c41d551ea0ee66dd599cde068d998e57d5e09332c1320546001600160a01b0316330361082757565b63bfcafd3760e01b5f5260045ffd5b908082146108515748018082101561084c575090565b905090565b509056fe70a71eba35f94eb7d444a54454d72cf5427a39a5c1ba5867c06c31e19a1ede16a2646970667358221220e376f338185ad3eb456d4cb72bd18902536d679e33c6b391775ae0e352f515e264736f6c634300081c0033",
        "nonce": "0x42",
        "chainId": "0x66eee"
      },
      "additionalContracts": [],
      "isFixedGasLimit": false
    },
    {
      "hash": "0xffd695ed77459a1de7293a5532b2a3684e9edeeef3737057c9a0722950f7783c",
      "transactionType": "CALL",
      "contractName": null,
      "contractAddress": "0x77306fc4b47c36a5f522f5cf50a598a6ad06e542",
      "function": "diamondCut((address,uint8,bytes4[])[],address,bytes)",
      "arguments": [
        "[(0xd7773F49F92F7f19175Ad7CEDeA31Ea22A10d3A7, 0, [0x76cdbb09, 0x572374f3, 0x4df826c7, 0xfa0386ed, 0x2e19fad9, 0x75b31085])]",
        "0x0000000000000000000000000000000000000000",
        "0x"
      ],
      "transaction": {
        "from": "0xacc34513d10bd5c57109bf83a8754856ff0b0eb0",
        "to": "0x77306fc4b47c36a5f522f5cf50a598a6ad06e542",
        "gas": "0x5e781",
        "value": "0x0",
        "input": "0x1f931c1c0000000000000000000000000000000000000000000000000000000000000060000000000000000000000000000000000000000000000000000000000000000000000000000000000000000000000000000000000000000000000000000001e000000000000000000000000000000000000000000000000000000000000000010000000000000000000000000000000000000000000000000000000000000020000000000000000000000000d7773f49f92f7f19175ad7cedea31ea22a10d3a700000000000000000000000000000000000000000000000000000000000000000000000000000000000000000000000000000000000000000000000000000060000000000000000000000000000000000000000000000000000000000000000676cdbb0900000000000000000000000000000000000000000000000000000000572374f3000000000000000000000000000000000000000000000000000000004df826c700000000000000000000000000000000000000000000000000000000fa0386ed000000000000000000000000000000000000000000000000000000002e19fad90000000000000000000000000000000000000000000000000000000075b31085000000000000000000000000000000000000000000000000000000000000000000000000000000000000000000000000000000000000000000000000",
        "nonce": "0x43",
        "chainId": "0x66eee"
      },
      "additionalContracts": [],
      "isFixedGasLimit": false
    },
    {
      "hash": "0xcb2e4f1acff0072324412c0da5cbeaf92616ee84cb8ec9455826802ce85e3978",
      "transactionType": "CALL",
      "contractName": null,
      "contractAddress": "0x77306fc4b47c36a5f522f5cf50a598a6ad06e542",
      "function": "updateContentTreasury(address)",
      "arguments": [
        "0xaCc34513D10bd5c57109bF83A8754856FF0b0eb0"
      ],
      "transaction": {
        "from": "0xacc34513d10bd5c57109bf83a8754856ff0b0eb0",
        "to": "0x77306fc4b47c36a5f522f5cf50a598a6ad06e542",
        "gas": "0x12b47",
        "value": "0x0",
        "input": "0x76cdbb09000000000000000000000000acc34513d10bd5c57109bf83a8754856ff0b0eb0",
        "nonce": "0x44",
        "chainId": "0x66eee"
      },
      "additionalContracts": [],
      "isFixedGasLimit": false
    },
    {
      "hash": "0x9423b6997ffc1eee68115a0176984c44b4f0dc40c0cd2a6f7266412b0781b2e8",
      "transactionType": "CALL",
      "contractName": null,
      "contractAddress": "0x77306fc4b47c36a5f522f5cf50a598a6ad06e542",
      "function": "updateContentPaymentToken(address)",
      "arguments": [
        "0xA4e6267D961a6C818FBF038713A8cc071562dC9e"
      ],
      "transaction": {
        "from": "0xacc34513d10bd5c57109bf83a8754856ff0b0eb0",
        "to": "0x77306fc4b47c36a5f522f5cf50a598a6ad06e542",
        "gas": "0x11a3f",
        "value": "0x0",
        "input": "0x572374f3000000000000000000000000a4e6267d961a6c818fbf038713a8cc071562dc9e",
        "nonce": "0x45",
        "chainId": "0x66eee"
      },
      "additionalContracts": [],
      "isFixedGasLimit": false
    },
    {
      "hash": "0x1b04fc668704d7e51ac53b5a06db4a55da837f0f67232c259ef3e35efe51ec4a",
      "transactionType": "CALL",
      "contractName": null,
      "contractAddress": "0x77306fc4b47c36a5f522f5cf50a598a6ad06e542",
      "function": "updateContentSurchargeFee(uint256)",
      "arguments": [
        "1000"
      ],
      "transaction": {
        "from": "0xacc34513d10bd5c57109bf83a8754856ff0b0eb0",
        "to": "0x77306fc4b47c36a5f522f5cf50a598a6ad06e542",
        "gas": "0x11843",
        "value": "0x0",
        "input": "0x4df826c700000000000000000000000000000000000000000000000000000000000003e8",
        "nonce": "0x46",
        "chainId": "0x66eee"
      },
      "additionalContracts": [],
      "isFixedGasLimit": false
    },
    {
      "hash": "0xcd37c0240c697bf4919d16515aad1fa5e924233d7985c08bf427f8c0bfcd4e47",
      "transactionType": "CALL",
      "contractName": null,
      "contractAddress": "0x77306fc4b47c36a5f522f5cf50a598a6ad06e542",
      "function": "updateContentBufferPostOp(uint256)",
      "arguments": [
        "21000"
      ],
      "transaction": {
        "from": "0xacc34513d10bd5c57109bf83a8754856ff0b0eb0",
        "to": "0x77306fc4b47c36a5f522f5cf50a598a6ad06e542",
        "gas": "0x118a0",
        "value": "0x0",
        "input": "0xfa0386ed0000000000000000000000000000000000000000000000000000000000005208",
        "nonce": "0x47",
        "chainId": "0x66eee"
      },
      "additionalContracts": [],
      "isFixedGasLimit": false
    },
    {
      "hash": "0x18832fd1451d94d6762f0c6605bde39a692cd2677a4d50bfb2d5f4ec7020ee01",
      "transactionType": "CALL",
      "contractName": null,
      "contractAddress": "0x77306fc4b47c36a5f522f5cf50a598a6ad06e542",
      "function": "setCanExecute(bytes4,address,bool)",
      "arguments": [
        "0x75b31085",
        "0xaCc34513D10bd5c57109bF83A8754856FF0b0eb0",
        "true"
      ],
      "transaction": {
        "from": "0xacc34513d10bd5c57109bf83a8754856ff0b0eb0",
        "to": "0x77306fc4b47c36a5f522f5cf50a598a6ad06e542",
        "gas": "0xa31ee",
        "value": "0x0",
        "input": "0xa4c3366e75b3108500000000000000000000000000000000000000000000000000000000000000000000000000000000acc34513d10bd5c57109bf83a8754856ff0b0eb00000000000000000000000000000000000000000000000000000000000000001",
        "nonce": "0x48",
        "chainId": "0x66eee"
      },
      "additionalContracts": [],
      "isFixedGasLimit": false
    }
  ],
  "receipts": [
    {
      "status": "0x1",
      "cumulativeGasUsed": "0x60502e",
      "logs": [],
      "logsBloom": "0x00000000000000000000000000000000000000000000000000000000000000000000000000000000000000000000000000000000000000000000000000000000000000000000000000000000000000000000000000000000000000000000000000000000000000000000000000000000000000000000000000000000000000000000000000000000000000000000000000000000000000000000000000000000000000000000000000000000000000000000000000000000000000000000000000000000000000000000000000000000000000000000000000000000000000000000000000000000000000000000000000000000000000000000000000000000",
      "type": "0x2",
      "transactionHash": "0xa4175b66b50778fb2b6904be20c4b84b04bb717cbd884363df287143667c2d01",
      "transactionIndex": "0x4",
      "blockHash": "0xb60f837bf42d0a4971204bee4b7819d2aa03fe23c513c21497001aad88bbc367",
      "blockNumber": "0x793c42c",
      "gasUsed": "0x332ac6",
      "effectiveGasPrice": "0x5f5e100",
      "from": "0xacc34513d10bd5c57109bf83a8754856ff0b0eb0",
      "to": null,
      "contractAddress": "0xd7773f49f92f7f19175ad7cedea31ea22a10d3a7",
      "gasUsedForL1": "0x2b091d",
      "l1BlockNumber": "0x76bcf8",
      "timeboosted": false
    },
    {
      "status": "0x1",
      "cumulativeGasUsed": "0x6fd4f33",
      "logs": [
        {
          "address": "0x77306fc4b47c36a5f522f5cf50a598a6ad06e542",
          "topics": [
            "0x8faa70878671ccd212d20771b795c50af8fd3ff6cf27f4bde57e5d4de0aeb673"
          ],
          "data": "0x0000000000000000000000000000000000000000000000000000000000000060000000000000000000000000000000000000000000000000000000000000000000000000000000000000000000000000000000000000000000000000000001e000000000000000000000000000000000000000000000000000000000000000010000000000000000000000000000000000000000000000000000000000000020000000000000000000000000d7773f49f92f7f19175ad7cedea31ea22a10d3a700000000000000000000000000000000000000000000000000000000000000000000000000000000000000000000000000000000000000000000000000000060000000000000000000000000000000000000000000000000000000000000000676cdbb0900000000000000000000000000000000000000000000000000000000572374f3000000000000000000000000000000000000000000000000000000004df826c700000000000000000000000000000000000000000000000000000000fa0386ed000000000000000000000000000000000000000000000000000000002e19fad90000000000000000000000000000000000000000000000000000000075b31085000000000000000000000000000000000000000000000000000000000000000000000000000000000000000000000000000000000000000000000000",
          "blockHash": "0x0268ebe7ab3edc849397068197fbef465edda7a356e1643a9a1b3ab13b016409",
          "blockNumber": "0x793c433",
          "transactionHash": "0xffd695ed77459a1de7293a5532b2a3684e9edeeef3737057c9a0722950f7783c",
          "transactionIndex": "0x4",
          "logIndex": "0x2",
          "removed": false
        }
      ],
      "logsBloom": "0x00000000000000000000000000000000000000000000000000000000000000000000000000000000000000000000000000000000800000000000000000000000000000000000000000000000000000000000000001000000000800000000000000000000000000000000000000000000000000000000000000000000000000000020000000000000000000000000000000000000000000000000000000000000000000000000000000000000040000000000000000000000000000000000000000000000000000000000000004000000000000000000000000000000000000000000000000000000000000000000000000000000000000000000000000000000",
      "type": "0x2",
      "transactionHash": "0xffd695ed77459a1de7293a5532b2a3684e9edeeef3737057c9a0722950f7783c",
      "transactionIndex": "0x4",
      "blockHash": "0x0268ebe7ab3edc849397068197fbef465edda7a356e1643a9a1b3ab13b016409",
      "blockNumber": "0x793c433",
      "gasUsed": "0xc2095",
      "effectiveGasPrice": "0x5f5e100",
      "from": "0xacc34513d10bd5c57109bf83a8754856ff0b0eb0",
      "to": "0x77306fc4b47c36a5f522f5cf50a598a6ad06e542",
      "contractAddress": null,
      "gasUsedForL1": "0x7da47",
      "l1BlockNumber": "0x76bcf8",
      "timeboosted": false
    },
    {
      "status": "0x1",
      "cumulativeGasUsed": "0x49f7f",
      "logs": [
        {
          "address": "0x77306fc4b47c36a5f522f5cf50a598a6ad06e542",
          "topics": [
            "0xb4fba53697ccdfc7351e474efe962f4fd5e5f30a8f8da7ef08b5e211cea4330d"
          ],
          "data": "0x000000000000000000000000acc34513d10bd5c57109bf83a8754856ff0b0eb0000000000000000000000000acc34513d10bd5c57109bf83a8754856ff0b0eb0",
          "blockHash": "0x7d70e828fefbaeb35c6dfb4f8150958bbf277630bad5791b29d77f4f90aa7588",
          "blockNumber": "0x793c43b",
          "transactionHash": "0xcb2e4f1acff0072324412c0da5cbeaf92616ee84cb8ec9455826802ce85e3978",
          "transactionIndex": "0x1",
          "logIndex": "0x0",
          "removed": false
        }
      ],
      "logsBloom": "0x00000000000000000000000000000000000000000000000000000000000000000000000000000000000000000000000000000000800000000000000000000000000000000000000000000000000000000000000000000000000000000000000010000000000000000000000000000000000000000000000000000000000000000400000000000000000000000000000000000000000000000000000000020000000000000000000000000000040000000000000000000000000000000000000000000000000000000000000004000000000000000000000000000000000000000000000000000000000000000000000000000000000000000000000000000000",
      "type": "0x2",
      "transactionHash": "0xcb2e4f1acff0072324412c0da5cbeaf92616ee84cb8ec9455826802ce85e3978",
      "transactionIndex": "0x1",
      "blockHash": "0x7d70e828fefbaeb35c6dfb4f8150958bbf277630bad5791b29d77f4f90aa7588",
      "blockNumber": "0x793c43b",
      "gasUsed": "0x49f7f",
      "effectiveGasPrice": "0x5f5e100",
      "from": "0xacc34513d10bd5c57109bf83a8754856ff0b0eb0",
      "to": "0x77306fc4b47c36a5f522f5cf50a598a6ad06e542",
      "contractAddress": null,
      "gasUsedForL1": "0x3d2dc",
      "l1BlockNumber": "0x76bcf8",
      "timeboosted": false
    },
    {
      "status": "0x1",
      "cumulativeGasUsed": "0x49f34",
      "logs": [
        {
          "address": "0x77306fc4b47c36a5f522f5cf50a598a6ad06e542",
          "topics": [
            "0x5efdfedf5aef119c431263f0656093045dffdf44b3d8f1b0f158dc295c3a0f8e"
          ],
          "data": "0x000000000000000000000000acc34513d10bd5c57109bf83a8754856ff0b0eb0000000000000000000000000a4e6267d961a6c818fbf038713a8cc071562dc9e",
          "blockHash": "0x99456098d272277a2f859090ca030e89bb9efdc30c643e04fd744aecead14c66",
          "blockNumber": "0x793c442",
          "transactionHash": "0x9423b6997ffc1eee68115a0176984c44b4f0dc40c0cd2a6f7266412b0781b2e8",
          "transactionIndex": "0x1",
          "logIndex": "0x0",
          "removed": false
        }
      ],
      "logsBloom": "0x00400000000000000000000000000000000000000000000000000000000000000000000000000000000000000000000000000000800000000000000000000000000000000000000000000000000000000000000000000000000000000000000000000000000000000000000000000000000000000000000000000000000000000000000000008000000000000000000000000000000000000000000000000000000000000000000000000000040000000000000000000000000000000000000000000000000000000000000004000000000000000000000000001000000000000000000000000000000000000000000000000000000000000000000000000000",
      "type": "0x2",
      "transactionHash": "0x9423b6997ffc1eee68115a0176984c44b4f0dc40c0cd2a6f7266412b0781b2e8",
      "transactionIndex": "0x1",
      "blockHash": "0x99456098d272277a2f859090ca030e89bb9efdc30c643e04fd744aecead14c66",
      "blockNumber": "0x793c442",
      "gasUsed": "0x49f34",
      "effectiveGasPrice": "0x5f5e100",
      "from": "0xacc34513d10bd5c57109bf83a8754856ff0b0eb0",
      "to": "0x77306fc4b47c36a5f522f5cf50a598a6ad06e542",
      "contractAddress": null,
      "gasUsedForL1": "0x3d2dc",
      "l1BlockNumber": "0x76bcf9",
      "timeboosted": false
    },
    {
      "status": "0x1",
      "cumulativeGasUsed": "0x49dc4",
      "logs": [
        {
          "address": "0x77306fc4b47c36a5f522f5cf50a598a6ad06e542",
          "topics": [
            "0x431b1fb304d83b237225a0d2f3528fe710bc3ab129071bc80802afcbacd87733"
          ],
          "data": "0x000000000000000000000000acc34513d10bd5c57109bf83a8754856ff0b0eb000000000000000000000000000000000000000000000000000000000000003e8",
          "blockHash": "0xb3f85745e0e4ece3151eb23dc6396b21b0755067d022fabf4e442f35dac5a6c0",
          "blockNumber": "0x793c44a",
          "transactionHash": "0x1b04fc668704d7e51ac53b5a06db4a55da837f0f67232c259ef3e35efe51ec4a",
          "transactionIndex": "0x1",
          "logIndex": "0x0",
          "removed": false
        }
      ],
      "logsBloom": "0x00000000000000000000000000000000000000000000000000000000000000000000000000000000000000000000000000000000800000000000000000000000000000000000000000000000000000000000000100000000000000000000000100000000000000000000000000000000000000000000000000000000000000000000000000000000000000000000000000000000000000000000000000000000000000000000000000000000040000000000000000000000000000000000000000000000000000000000000004000000000000000000000000000000000000000000000000000000000000000000000000000000000000000000000100000000",
      "type": "0x2",
      "transactionHash": "0x1b04fc668704d7e51ac53b5a06db4a55da837f0f67232c259ef3e35efe51ec4a",
      "transactionIndex": "0x1",
      "blockHash": "0xb3f85745e0e4ece3151eb23dc6396b21b0755067d022fabf4e442f35dac5a6c0",
      "blockNumber": "0x793c44a",
      "gasUsed": "0x49dc4",
      "effectiveGasPrice": "0x5f5e100",
      "from": "0xacc34513d10bd5c57109bf83a8754856ff0b0eb0",
      "to": "0x77306fc4b47c36a5f522f5cf50a598a6ad06e542",
      "contractAddress": null,
      "gasUsedForL1": "0x3d2dc",
      "l1BlockNumber": "0x76bcf9",
      "timeboosted": false
    },
    {
      "status": "0x1",
      "cumulativeGasUsed": "0x49e08",
      "logs": [
        {
          "address": "0x77306fc4b47c36a5f522f5cf50a598a6ad06e542",
          "topics": [
            "0x5f6010b04622c73f4907621238210c6d87a08f5e0892b7275c1dd1f5adc1bfcb"
          ],
          "data": "0x000000000000000000000000acc34513d10bd5c57109bf83a8754856ff0b0eb00000000000000000000000000000000000000000000000000000000000005208",
          "blockHash": "0xa90dd7296b515b7feff04981876f892d640b94814637ee9cf6912e275a29b4b3",
          "blockNumber": "0x793c452",
          "transactionHash": "0xcd37c0240c697bf4919d16515aad1fa5e924233d7985c08bf427f8c0bfcd4e47",
          "transactionIndex": "0x1",
          "logIndex": "0x0",
          "removed": false
        }
      ],
      "logsBloom": "0x00000000000000000000000000000000000000000000000000000000000000000000000000000000000000000000000000000000800000000000000000000000000000000000000000000000000000000000000000000000000000000000000000000004000000000000000000000000000000000000000000000000000000000000000000000000000000000000000000000000000000000000000400000000000000000000000000000000040000000000000000000000000000000000008000000000000000000000000004000000000000000000000000000000000000000000000000000000000000000000000000000000000000000000000000000000",
      "type": "0x2",
      "transactionHash": "0xcd37c0240c697bf4919d16515aad1fa5e924233d7985c08bf427f8c0bfcd4e47",
      "transactionIndex": "0x1",
      "blockHash": "0xa90dd7296b515b7feff04981876f892d640b94814637ee9cf6912e275a29b4b3",
      "blockNumber": "0x793c452",
      "gasUsed": "0x49e08",
      "effectiveGasPrice": "0x5f5e100",
      "from": "0xacc34513d10bd5c57109bf83a8754856ff0b0eb0",
      "to": "0x77306fc4b47c36a5f522f5cf50a598a6ad06e542",
      "contractAddress": null,
      "gasUsedForL1": "0x3d2dc",
      "l1BlockNumber": "0x76bcf9",
      "timeboosted": false
    },
    {
      "status": "0x1",
      "cumulativeGasUsed": "0xe2559",
      "logs": [
        {
          "address": "0x77306fc4b47c36a5f522f5cf50a598a6ad06e542",
          "topics": [
            "0xcdd2f8ab598ea828ea63b4a6cfc86ccf7d40784556f0783753603ba712c83b00",
            "0x000000000000000000000000acc34513d10bd5c57109bf83a8754856ff0b0eb0",
            "0x75b3108500000000000000000000000000000000000000000000000000000000"
          ],
          "data": "0x",
          "blockHash": "0x2c835899a85e775c1ea6c992e183f1eb3c96cc0c58f7b14e912bbd5aa6173e55",
          "blockNumber": "0x793c45a",
          "transactionHash": "0x18832fd1451d94d6762f0c6605bde39a692cd2677a4d50bfb2d5f4ec7020ee01",
          "transactionIndex": "0x2",
          "logIndex": "0x3",
          "removed": false
        },
        {
          "address": "0x77306fc4b47c36a5f522f5cf50a598a6ad06e542",
          "topics": [
            "0xd97cb52d6a919c35d1a9848f69806a32611c1381fa1078e5ea866186ee4c46c7",
            "0x000000000000000000000000acc34513d10bd5c57109bf83a8754856ff0b0eb0",
            "0x75b3108500000000000000000000000000000000000000000000000000000000"
          ],
          "data": "0x",
          "blockHash": "0x2c835899a85e775c1ea6c992e183f1eb3c96cc0c58f7b14e912bbd5aa6173e55",
          "blockNumber": "0x793c45a",
          "transactionHash": "0x18832fd1451d94d6762f0c6605bde39a692cd2677a4d50bfb2d5f4ec7020ee01",
          "transactionIndex": "0x2",
          "logIndex": "0x4",
          "removed": false
        }
      ],
      "logsBloom": "0x00000000000000000000000000000000000002001000000000000000000000000000000000000000000000000000000000000000800000000000000000000000000000000000000000800000000000000000000000000000000000000000000000000000000000000000000000000000000000000000000000002000000400000000000000000002000000000000000000000000000000000000000000000000000000000000000002000000040000000000000000000000080000000000000000000000000000000000000004000020000008000000000000000000000000000000000000000000000000000000000000000000200000000000000000000000",
      "type": "0x2",
      "transactionHash": "0x18832fd1451d94d6762f0c6605bde39a692cd2677a4d50bfb2d5f4ec7020ee01",
      "transactionIndex": "0x2",
      "blockHash": "0x2c835899a85e775c1ea6c992e183f1eb3c96cc0c58f7b14e912bbd5aa6173e55",
      "blockNumber": "0x793c45a",
      "gasUsed": "0x653fd",
      "effectiveGasPrice": "0x5f5e100",
      "from": "0xacc34513d10bd5c57109bf83a8754856ff0b0eb0",
      "to": "0x77306fc4b47c36a5f522f5cf50a598a6ad06e542",
      "contractAddress": null,
      "gasUsedForL1": "0x57de1",
      "l1BlockNumber": "0x76bcf9",
      "timeboosted": false
    }
  ],
  "libraries": [],
  "pending": [],
  "returns": {},
  "timestamp": 1740473373,
  "chain": 421614,
  "commit": "d441714"
}