{
  "transactions": [
    {
      "hash": "0xaa0a437cf9352ab84a069d217630bcac021ba3313b11b4d39c9a2500ed3c84e2",
      "transactionType": "CREATE",
      "contractName": "DonationFacet",
      "contractAddress": "0x6e0bfb252735fdadd970233a32b382ad8832f10a",
      "function": null,
      "arguments": null,
      "transaction": {
        "from": "0xacc34513d10bd5c57109bf83a8754856ff0b0eb0",
        "gas": "0x4a9544",
        "value": "0x0",
        "input": "0x608080604052346015576108dc908161001a8239f35b5f80fdfe60806040526004361015610011575f80fd5b5f358060e01c9081632581e80a146105b6578163326d33c8146105105781634a1cfd781461021a575080634d585706146101785780636be5de13146100e35763c4f0305f1461005e575f80fd5b346100df5760203660031901126100df577f5f6010b04622c73f4907621238210c6d87a08f5e0892b7275c1dd1f5adc1bfcb6100da60043561009e610825565b7fcc1230c4c69638f9e086c24b40aa0950b45dc4a3114bf5bfac57f0669015eb8681905560408051338152602081019290925290918291820190565b0390a1005b5f80fd5b346100df5760203660031901126100df576004356100ff610825565b6127108111610167577fcc1230c4c69638f9e086c24b40aa0950b45dc4a3114bf5bfac57f0669015eb858190556040805133815260208101929092527f431b1fb304d83b237225a0d2f3528fe710bc3ab129071bc80802afcbacd877339190819081016100da565b6209828560e11b5f5260045260245ffd5b346100df5760203660031901126100df57610191610715565b610199610825565b6001600160a01b038116801561020b575f5160206108875f395f51905f5280546001600160a01b0319169091179055604080513381526001600160a01b0390921660208301527f0e2a82c8d0cea0c02d55068f67067d576b8960b4e78cd01b5601be0b263115fb9190819081016100da565b63d92e233d60e01b5f5260045ffd5b346100df576101003660031901126100df57610234610715565b9061023d61072b565b6044356001600160a01b038116918282036100df57606435936084359267ffffffffffffffff84116100df57366023850112156100df5783600401359367ffffffffffffffff85116104fc57604051946102a1601f8201601f191660200187610741565b808652602086019136602483830101116100df57815f926024602093018537870101525a9263ffffffff60e01b165f527f0f42d8c723f87f8ec4e713dc7823d60583c83de33739a2752db62c15ca48619c60205260405f20335f52602052600160ff60405f2054161515036104ed5786156104de576103656127106103477fcc1230c4c69638f9e086c24b40aa0950b45dc4a3114bf5bfac57f0669015eb85548a610763565b04986001600160a01b03169261035d8a8a610776565b908685610783565b876104b4575b61038461037c60c43560a435610867565b935a90610776565b947fcc1230c4c69638f9e086c24b40aa0950b45dc4a3114bf5bfac57f0669015eb865486018096116104a0576040986103e1610120957f240c4e2e101aeab0c0ac3da5830acd8536d52ed3e7364802e009a9c891180bc998610763565b986103ee60e4358b610763565b7fcc1230c4c69638f9e086c24b40aa0950b45dc4a3114bf5bfac57f0669015eb88545f5160206108875f395f51905f5254919a9161043c918c916001600160a01b03908116918c9116610783565b8b51978896338852602088015260018060a01b03168c8701526060860152608085015260a08401528660c084015261010060e0840152518091816101008501528484015e5f828201840152601f01601f19168101030190a182519182526020820152f35b634e487b7160e01b5f52601160045260245ffd5b5f5160206108875f395f51905f52546104d99089906001600160a01b03168685610783565b61036b565b636370392160e11b5f5260045ffd5b63be24598360e01b5f5260045ffd5b634e487b7160e01b5f52604160045260245ffd5b346100df5760203660031901126100df57610529610715565b610531610825565b6001600160a01b038116801561020b577fcc1230c4c69638f9e086c24b40aa0950b45dc4a3114bf5bfac57f0669015eb8880546001600160a01b0319169091179055604080513381526001600160a01b0390921660208301527f5efdfedf5aef119c431263f0656093045dffdf44b3d8f1b0f158dc295c3a0f8e9190819081016100da565b346100df5760803660031901126100df576105cf610715565b6105d761072b565b6064359160443567ffffffffffffffff84116100df57366023850112156100df57836004013567ffffffffffffffff81116100df5736602482870101116100df5781156104de578060247f5a5aeb75f626d6817920a00edd583a0878db4a95e646d24a4c77ea250a943dd49660e0956127106106747fcc1230c4c69638f9e086c24b40aa0950b45dc4a3114bf5bfac57f0669015eb855488610763565b6001600160a01b03909216969104906106986106908383610776565b8a338a610783565b816106eb575b604051988997885233602089015260018060a01b031660408801526060870152608086015260c060a08601528260c086015201848401375f828201840152601f01601f19168101030190a1005b5f5160206108875f395f51905f52546107109083906001600160a01b0316338a610783565b61069e565b600435906001600160a01b03821682036100df57565b602435906001600160a01b03821682036100df57565b90601f8019910116810190811067ffffffffffffffff8211176104fc57604052565b818102929181159184041417156104a057565b919082039182116104a057565b6040516323b872dd60e01b60208083019182526001600160a01b039485166024840152949093166044820152606480820195909552938452925f91906107ca608482610741565b519082855af11561081a575f513d61081157506001600160a01b0381163b155b6107f15750565b635274afe760e01b5f9081526001600160a01b0391909116600452602490fd5b600114156107ea565b6040513d5f823e3d90fd5b7fc8fcad8db84d3cc18b4c41d551ea0ee66dd599cde068d998e57d5e09332c1320546001600160a01b0316330361085857565b63bfcafd3760e01b5f5260045ffd5b908082146108825748018082101561087d575090565b905090565b509056fecc1230c4c69638f9e086c24b40aa0950b45dc4a3114bf5bfac57f0669015eb87a26469706673582212207bc496b42fe47afc3fb679bae22ebb0ff16662854eb807eb1b942e30bf5db5b764736f6c634300081c0033",
        "nonce": "0x49",
        "chainId": "0x66eee"
      },
      "additionalContracts": [],
      "isFixedGasLimit": false
    },
    {
      "hash": "0x5a44cbdf713e3e100b4e7afbc941b312defca8a2c5d2bdd2a3052cd43921b765",
      "transactionType": "CALL",
      "contractName": null,
      "contractAddress": "0x77306fc4b47c36a5f522f5cf50a598a6ad06e542",
      "function": "diamondCut((address,uint8,bytes4[])[],address,bytes)",
      "arguments": [
        "[(0x6E0bfB252735FDaDd970233a32b382Ad8832f10a, 0, [0x4d585706, 0x326d33c8, 0x6be5de13, 0xc4f0305f, 0x2581e80a, 0x4a1cfd78])]",
        "0x0000000000000000000000000000000000000000",
        "0x"
      ],
      "transaction": {
        "from": "0xacc34513d10bd5c57109bf83a8754856ff0b0eb0",
        "to": "0x77306fc4b47c36a5f522f5cf50a598a6ad06e542",
        "gas": "0x5e781",
        "value": "0x0",
        "input": "0x1f931c1c0000000000000000000000000000000000000000000000000000000000000060000000000000000000000000000000000000000000000000000000000000000000000000000000000000000000000000000000000000000000000000000001e0000000000000000000000000000000000000000000000000000000000000000100000000000000000000000000000000000000000000000000000000000000200000000000000000000000006e0bfb252735fdadd970233a32b382ad8832f10a0000000000000000000000000000000000000000000000000000000000000000000000000000000000000000000000000000000000000000000000000000006000000000000000000000000000000000000000000000000000000000000000064d58570600000000000000000000000000000000000000000000000000000000326d33c8000000000000000000000000000000000000000000000000000000006be5de1300000000000000000000000000000000000000000000000000000000c4f0305f000000000000000000000000000000000000000000000000000000002581e80a000000000000000000000000000000000000000000000000000000004a1cfd78000000000000000000000000000000000000000000000000000000000000000000000000000000000000000000000000000000000000000000000000",
        "nonce": "0x4a",
        "chainId": "0x66eee"
      },
      "additionalContracts": [],
      "isFixedGasLimit": false
    },
    {
      "hash": "0x8bc305c78fb333e8e8d1a35ef8ca103a2f7efc756e6280a9eb1a1358b39ff423",
      "transactionType": "CALL",
      "contractName": null,
      "contractAddress": "0x77306fc4b47c36a5f522f5cf50a598a6ad06e542",
      "function": "updateDonationTreasury(address)",
      "arguments": [
        "0xaCc34513D10bd5c57109bF83A8754856FF0b0eb0"
      ],
      "transaction": {
        "from": "0xacc34513d10bd5c57109bf83a8754856ff0b0eb0",
        "to": "0x77306fc4b47c36a5f522f5cf50a598a6ad06e542",
        "gas": "0x11a88",
        "value": "0x0",
        "input": "0x4d585706000000000000000000000000acc34513d10bd5c57109bf83a8754856ff0b0eb0",
        "nonce": "0x4b",
        "chainId": "0x66eee"
      },
      "additionalContracts": [],
      "isFixedGasLimit": false
    },
    {
      "hash": "0xfa85ce610fe37a0238042255cccd60772b08459963947189c1946308909d07f5",
      "transactionType": "CALL",
      "contractName": null,
      "contractAddress": "0x77306fc4b47c36a5f522f5cf50a598a6ad06e542",
      "function": "updateDonationPaymentToken(address)",
      "arguments": [
        "0xA4e6267D961a6C818FBF038713A8cc071562dC9e"
      ],
      "transaction": {
        "from": "0xacc34513d10bd5c57109bf83a8754856ff0b0eb0",
        "to": "0x77306fc4b47c36a5f522f5cf50a598a6ad06e542",
        "gas": "0x12ab9",
        "value": "0x0",
        "input": "0x326d33c8000000000000000000000000a4e6267d961a6c818fbf038713a8cc071562dc9e",
        "nonce": "0x4c",
        "chainId": "0x66eee"
      },
      "additionalContracts": [],
      "isFixedGasLimit": false
    },
    {
      "hash": "0x9177998e6cf46807c29fbbbf1a4cb941d258a7e92a1683fafb44cb2e53f350ff",
      "transactionType": "CALL",
      "contractName": null,
      "contractAddress": "0x77306fc4b47c36a5f522f5cf50a598a6ad06e542",
      "function": "updateDonationSurchargeFee(uint256)",
      "arguments": [
        "1000"
      ],
      "transaction": {
        "from": "0xacc34513d10bd5c57109bf83a8754856ff0b0eb0",
        "to": "0x77306fc4b47c36a5f522f5cf50a598a6ad06e542",
        "gas": "0x118a0",
        "value": "0x0",
        "input": "0x6be5de1300000000000000000000000000000000000000000000000000000000000003e8",
        "nonce": "0x4d",
        "chainId": "0x66eee"
      },
      "additionalContracts": [],
      "isFixedGasLimit": false
    },
    {
      "hash": "0x3a2b4cd87e2da556ab533461fe6506b42708c5455d4465066f65ab7045d4596c",
      "transactionType": "CALL",
      "contractName": null,
      "contractAddress": "0x77306fc4b47c36a5f522f5cf50a598a6ad06e542",
      "function": "updateDonationBufferPostOp(uint256)",
      "arguments": [
        "21000"
      ],
      "transaction": {
        "from": "0xacc34513d10bd5c57109bf83a8754856ff0b0eb0",
        "to": "0x77306fc4b47c36a5f522f5cf50a598a6ad06e542",
        "gas": "0x118a0",
        "value": "0x0",
        "input": "0xc4f0305f0000000000000000000000000000000000000000000000000000000000005208",
        "nonce": "0x4e",
        "chainId": "0x66eee"
      },
      "additionalContracts": [],
      "isFixedGasLimit": false
    },
    {
      "hash": "0xde108efb2e3a7a6ac7e8b81fe363d246be039e42f312799b0ae43994b5cc5cd2",
      "transactionType": "CALL",
      "contractName": null,
      "contractAddress": "0x77306fc4b47c36a5f522f5cf50a598a6ad06e542",
      "function": "setCanExecute(bytes4,address,bool)",
      "arguments": [
        "0x4a1cfd78",
        "0xaCc34513D10bd5c57109bF83A8754856FF0b0eb0",
        "true"
      ],
      "transaction": {
        "from": "0xacc34513d10bd5c57109bf83a8754856ff0b0eb0",
        "to": "0x77306fc4b47c36a5f522f5cf50a598a6ad06e542",
        "gas": "0xa31ee",
        "value": "0x0",
        "input": "0xa4c3366e4a1cfd7800000000000000000000000000000000000000000000000000000000000000000000000000000000acc34513d10bd5c57109bf83a8754856ff0b0eb00000000000000000000000000000000000000000000000000000000000000001",
        "nonce": "0x4f",
        "chainId": "0x66eee"
      },
      "additionalContracts": [],
      "isFixedGasLimit": false
    }
  ],
  "receipts": [
    {
      "status": "0x1",
      "cumulativeGasUsed": "0x33a975",
      "logs": [],
      "logsBloom": "0x00000000000000000000000000000000000000000000000000000000000000000000000000000000000000000000000000000000000000000000000000000000000000000000000000000000000000000000000000000000000000000000000000000000000000000000000000000000000000000000000000000000000000000000000000000000000000000000000000000000000000000000000000000000000000000000000000000000000000000000000000000000000000000000000000000000000000000000000000000000000000000000000000000000000000000000000000000000000000000000000000000000000000000000000000000000",
      "type": "0x2",
      "transactionHash": "0xaa0a437cf9352ab84a069d217630bcac021ba3313b11b4d39c9a2500ed3c84e2",
      "transactionIndex": "0x1",
      "blockHash": "0xe93f13d9a8991405191973f883056b5b8ef9f736cce9f3a00bfd48be6d368eae",
      "blockNumber": "0x793c4bb",
      "gasUsed": "0x33a975",
      "effectiveGasPrice": "0x5f5e100",
      "from": "0xacc34513d10bd5c57109bf83a8754856ff0b0eb0",
      "to": null,
      "contractAddress": "0x6e0bfb252735fdadd970233a32b382ad8832f10a",
      "gasUsedForL1": "0x2b5e84",
      "l1BlockNumber": "0x76bcfc",
      "timeboosted": false
    },
    {
      "status": "0x1",
      "cumulativeGasUsed": "0x156da5",
      "logs": [
        {
          "address": "0x77306fc4b47c36a5f522f5cf50a598a6ad06e542",
          "topics": [
            "0x8faa70878671ccd212d20771b795c50af8fd3ff6cf27f4bde57e5d4de0aeb673"
          ],
          "data": "0x0000000000000000000000000000000000000000000000000000000000000060000000000000000000000000000000000000000000000000000000000000000000000000000000000000000000000000000000000000000000000000000001e0000000000000000000000000000000000000000000000000000000000000000100000000000000000000000000000000000000000000000000000000000000200000000000000000000000006e0bfb252735fdadd970233a32b382ad8832f10a0000000000000000000000000000000000000000000000000000000000000000000000000000000000000000000000000000000000000000000000000000006000000000000000000000000000000000000000000000000000000000000000064d58570600000000000000000000000000000000000000000000000000000000326d33c8000000000000000000000000000000000000000000000000000000006be5de1300000000000000000000000000000000000000000000000000000000c4f0305f000000000000000000000000000000000000000000000000000000002581e80a000000000000000000000000000000000000000000000000000000004a1cfd78000000000000000000000000000000000000000000000000000000000000000000000000000000000000000000000000000000000000000000000000",
          "blockHash": "0xf1f43ae441f19fbd97e0fd2d5bb0e359fc553a834c251cf37a78105f3ca44869",
          "blockNumber": "0x793c4c2",
          "transactionHash": "0x5a44cbdf713e3e100b4e7afbc941b312defca8a2c5d2bdd2a3052cd43921b765",
          "transactionIndex": "0x2",
          "logIndex": "0x2",
          "removed": false
        }
      ],
      "logsBloom": "0x00000000000000000000000000000000000000000000000000000000000000000000000000000000000000000000000000000000800000000000000000000000000000000000000000000000000000000000000001000000000800000000000000000000000000000000000000000000000000000000000000000000000000000020000000000000000000000000000000000000000000000000000000000000000000000000000000000000040000000000000000000000000000000000000000000000000000000000000004000000000000000000000000000000000000000000000000000000000000000000000000000000000000000000000000000000",
      "type": "0x2",
      "transactionHash": "0x5a44cbdf713e3e100b4e7afbc941b312defca8a2c5d2bdd2a3052cd43921b765",
      "transactionIndex": "0x2",
      "blockHash": "0xf1f43ae441f19fbd97e0fd2d5bb0e359fc553a834c251cf37a78105f3ca44869",
      "blockNumber": "0x793c4c2",
      "gasUsed": "0xbbe0a",
      "effectiveGasPrice": "0x5f5e100",
      "from": "0xacc34513d10bd5c57109bf83a8754856ff0b0eb0",
      "to": "0x77306fc4b47c36a5f522f5cf50a598a6ad06e542",
      "contractAddress": null,
      "gasUsedForL1": "0x777bc",
      "l1BlockNumber": "0x76bcfc",
      "timeboosted": false
    },
    {
      "status": "0x1",
      "cumulativeGasUsed": "0x49f69",
      "logs": [
        {
          "address": "0x77306fc4b47c36a5f522f5cf50a598a6ad06e542",
          "topics": [
            "0x0e2a82c8d0cea0c02d55068f67067d576b8960b4e78cd01b5601be0b263115fb"
          ],
          "data": "0x000000000000000000000000acc34513d10bd5c57109bf83a8754856ff0b0eb0000000000000000000000000acc34513d10bd5c57109bf83a8754856ff0b0eb0",
          "blockHash": "0xb2c40ca64a674f0d97c94a59dafffcb29ee45a04199c557d833f92b30d4528bf",
          "blockNumber": "0x793c4c8",
          "transactionHash": "0x8bc305c78fb333e8e8d1a35ef8ca103a2f7efc756e6280a9eb1a1358b39ff423",
          "transactionIndex": "0x1",
          "logIndex": "0x0",
          "removed": false
        }
      ],
      "logsBloom": "0x00000000000000000000000000000000000000000000000000000000000000000000000000000000000000000000000000000000800000000000000000000000000000000000000000000000000000000000000000000000000000000000000000000000000000000000000000000000000800000000000000000000000000000000000000000000000000000000000000000000000000000000000000000000020000000000000000000000040000000000000000000000000080000000000000000000000000000000000004000000000000000000000000000000000000000000000000000000000000000000000000000000000000000000000000000000",
      "type": "0x2",
      "transactionHash": "0x8bc305c78fb333e8e8d1a35ef8ca103a2f7efc756e6280a9eb1a1358b39ff423",
      "transactionIndex": "0x1",
      "blockHash": "0xb2c40ca64a674f0d97c94a59dafffcb29ee45a04199c557d833f92b30d4528bf",
      "blockNumber": "0x793c4c8",
      "gasUsed": "0x49f69",
      "effectiveGasPrice": "0x5f5e100",
      "from": "0xacc34513d10bd5c57109bf83a8754856ff0b0eb0",
      "to": "0x77306fc4b47c36a5f522f5cf50a598a6ad06e542",
      "contractAddress": null,
      "gasUsedForL1": "0x3d2dc",
      "l1BlockNumber": "0x76bcfc",
      "timeboosted": false
    },
    {
      "status": "0x1",
      "cumulativeGasUsed": "0x49f1e",
      "logs": [
        {
          "address": "0x77306fc4b47c36a5f522f5cf50a598a6ad06e542",
          "topics": [
            "0x5efdfedf5aef119c431263f0656093045dffdf44b3d8f1b0f158dc295c3a0f8e"
          ],
          "data": "0x000000000000000000000000acc34513d10bd5c57109bf83a8754856ff0b0eb0000000000000000000000000a4e6267d961a6c818fbf038713a8cc071562dc9e",
          "blockHash": "0x9bbf407ede00c128d0588514ee50c65e40cc8799bc5d0f9b5bb967da4a01904e",
          "blockNumber": "0x793c4d0",
          "transactionHash": "0xfa85ce610fe37a0238042255cccd60772b08459963947189c1946308909d07f5",
          "transactionIndex": "0x1",
          "logIndex": "0x0",
          "removed": false
        }
      ],
      "logsBloom": "0x00400000000000000000000000000000000000000000000000000000000000000000000000000000000000000000000000000000800000000000000000000000000000000000000000000000000000000000000000000000000000000000000000000000000000000000000000000000000000000000000000000000000000000000000000008000000000000000000000000000000000000000000000000000000000000000000000000000040000000000000000000000000000000000000000000000000000000000000004000000000000000000000000001000000000000000000000000000000000000000000000000000000000000000000000000000",
      "type": "0x2",
      "transactionHash": "0xfa85ce610fe37a0238042255cccd60772b08459963947189c1946308909d07f5",
      "transactionIndex": "0x1",
      "blockHash": "0x9bbf407ede00c128d0588514ee50c65e40cc8799bc5d0f9b5bb967da4a01904e",
      "blockNumber": "0x793c4d0",
      "gasUsed": "0x49f1e",
      "effectiveGasPrice": "0x5f5e100",
      "from": "0xacc34513d10bd5c57109bf83a8754856ff0b0eb0",
      "to": "0x77306fc4b47c36a5f522f5cf50a598a6ad06e542",
      "contractAddress": null,
      "gasUsedForL1": "0x3d2dc",
      "l1BlockNumber": "0x76bcfc",
      "timeboosted": false
    },
    {
      "status": "0x1",
      "cumulativeGasUsed": "0x49e08",
      "logs": [
        {
          "address": "0x77306fc4b47c36a5f522f5cf50a598a6ad06e542",
          "topics": [
            "0x431b1fb304d83b237225a0d2f3528fe710bc3ab129071bc80802afcbacd87733"
          ],
          "data": "0x000000000000000000000000acc34513d10bd5c57109bf83a8754856ff0b0eb000000000000000000000000000000000000000000000000000000000000003e8",
          "blockHash": "0x60d7805443638fabee2c203038102a93d2ddd172fff8da4eba0b35b64aa44766",
          "blockNumber": "0x793c4d7",
          "transactionHash": "0x9177998e6cf46807c29fbbbf1a4cb941d258a7e92a1683fafb44cb2e53f350ff",
          "transactionIndex": "0x1",
          "logIndex": "0x0",
          "removed": false
        }
      ],
      "logsBloom": "0x00000000000000000000000000000000000000000000000000000000000000000000000000000000000000000000000000000000800000000000000000000000000000000000000000000000000000000000000100000000000000000000000100000000000000000000000000000000000000000000000000000000000000000000000000000000000000000000000000000000000000000000000000000000000000000000000000000000040000000000000000000000000000000000000000000000000000000000000004000000000000000000000000000000000000000000000000000000000000000000000000000000000000000000000100000000",
      "type": "0x2",
      "transactionHash": "0x9177998e6cf46807c29fbbbf1a4cb941d258a7e92a1683fafb44cb2e53f350ff",
      "transactionIndex": "0x1",
      "blockHash": "0x60d7805443638fabee2c203038102a93d2ddd172fff8da4eba0b35b64aa44766",
      "blockNumber": "0x793c4d7",
      "gasUsed": "0x49e08",
      "effectiveGasPrice": "0x5f5e100",
      "from": "0xacc34513d10bd5c57109bf83a8754856ff0b0eb0",
      "to": "0x77306fc4b47c36a5f522f5cf50a598a6ad06e542",
      "contractAddress": null,
      "gasUsedForL1": "0x3d2dc",
      "l1BlockNumber": "0x76bcfc",
      "timeboosted": false
    },
    {
      "status": "0x1",
      "cumulativeGasUsed": "0x169f02",
      "logs": [
        {
          "address": "0x77306fc4b47c36a5f522f5cf50a598a6ad06e542",
          "topics": [
            "0x5f6010b04622c73f4907621238210c6d87a08f5e0892b7275c1dd1f5adc1bfcb"
          ],
          "data": "0x000000000000000000000000acc34513d10bd5c57109bf83a8754856ff0b0eb00000000000000000000000000000000000000000000000000000000000005208",
          "blockHash": "0xde41bdc7a60c03ec336cc7f9ac90fd665ab133ff80caaeebf63a9165eda9aedf",
          "blockNumber": "0x793c4de",
          "transactionHash": "0x3a2b4cd87e2da556ab533461fe6506b42708c5455d4465066f65ab7045d4596c",
          "transactionIndex": "0x2",
          "logIndex": "0x3",
          "removed": false
        }
      ],
      "logsBloom": "0x00000000000000000000000000000000000000000000000000000000000000000000000000000000000000000000000000000000800000000000000000000000000000000000000000000000000000000000000000000000000000000000000000000004000000000000000000000000000000000000000000000000000000000000000000000000000000000000000000000000000000000000000400000000000000000000000000000000040000000000000000000000000000000000008000000000000000000000000004000000000000000000000000000000000000000000000000000000000000000000000000000000000000000000000000000000",
      "type": "0x2",
      "transactionHash": "0x3a2b4cd87e2da556ab533461fe6506b42708c5455d4465066f65ab7045d4596c",
      "transactionIndex": "0x2",
      "blockHash": "0xde41bdc7a60c03ec336cc7f9ac90fd665ab133ff80caaeebf63a9165eda9aedf",
      "blockNumber": "0x793c4de",
      "gasUsed": "0x49e08",
      "effectiveGasPrice": "0x5f5e100",
      "from": "0xacc34513d10bd5c57109bf83a8754856ff0b0eb0",
      "to": "0x77306fc4b47c36a5f522f5cf50a598a6ad06e542",
      "contractAddress": null,
      "gasUsedForL1": "0x3d2dc",
      "l1BlockNumber": "0x76bcfc",
      "timeboosted": false
    },
    {
      "status": "0x1",
      "cumulativeGasUsed": "0x653fd",
      "logs": [
        {
          "address": "0x77306fc4b47c36a5f522f5cf50a598a6ad06e542",
          "topics": [
            "0xcdd2f8ab598ea828ea63b4a6cfc86ccf7d40784556f0783753603ba712c83b00",
            "0x000000000000000000000000acc34513d10bd5c57109bf83a8754856ff0b0eb0",
            "0x4a1cfd7800000000000000000000000000000000000000000000000000000000"
          ],
          "data": "0x",
          "blockHash": "0x49af32545caa1c944b657389949f280f6df28da17b4c916e72618b1f33fe5053",
          "blockNumber": "0x793c4e4",
          "transactionHash": "0xde108efb2e3a7a6ac7e8b81fe363d246be039e42f312799b0ae43994b5cc5cd2",
          "transactionIndex": "0x1",
          "logIndex": "0x0",
          "removed": false
        },
        {
          "address": "0x77306fc4b47c36a5f522f5cf50a598a6ad06e542",
          "topics": [
            "0xd97cb52d6a919c35d1a9848f69806a32611c1381fa1078e5ea866186ee4c46c7",
            "0x000000000000000000000000acc34513d10bd5c57109bf83a8754856ff0b0eb0",
            "0x4a1cfd7800000000000000000000000000000000000000000000000000000000"
          ],
          "data": "0x",
          "blockHash": "0x49af32545caa1c944b657389949f280f6df28da17b4c916e72618b1f33fe5053",
          "blockNumber": "0x793c4e4",
          "transactionHash": "0xde108efb2e3a7a6ac7e8b81fe363d246be039e42f312799b0ae43994b5cc5cd2",
          "transactionIndex": "0x1",
          "logIndex": "0x1",
          "removed": false
        }
      ],
      "logsBloom": "0x00000000000000000000000000000000000002001000000000000000000000000000000000000000000000000000000000000000800000000000000000000000000000000000000000000000000000000000000000000000000000000000000000000000000000000000000000000000000000000000000000002000000400000000000000000002000000000000000000000000000000000000010000000000000000000000000002000000040000000000000000000000080000000000000000000000000000000000000004000000000008000010000000000000000000000000000000020000000000000000000000000000200000000000000000000000",
      "type": "0x2",
      "transactionHash": "0xde108efb2e3a7a6ac7e8b81fe363d246be039e42f312799b0ae43994b5cc5cd2",
      "transactionIndex": "0x1",
      "blockHash": "0x49af32545caa1c944b657389949f280f6df28da17b4c916e72618b1f33fe5053",
      "blockNumber": "0x793c4e4",
      "gasUsed": "0x653fd",
      "effectiveGasPrice": "0x5f5e100",
      "from": "0xacc34513d10bd5c57109bf83a8754856ff0b0eb0",
      "to": "0x77306fc4b47c36a5f522f5cf50a598a6ad06e542",
      "contractAddress": null,
      "gasUsedForL1": "0x57de1",
      "l1BlockNumber": "0x76bcfc",
      "timeboosted": false
    }
  ],
  "libraries": [],
  "pending": [],
  "returns": {},
  "timestamp": 1740473412,
  "chain": 421614,
  "commit": "d441714"
}