{
  "transactions": [
    {
      "hash": "0x279a80f92c378e1e00193b05f21868b01f5d8fa2d2c80c733683b2e53dc1d450",
      "transactionType": "CALL",
      "contractName": null,
      "contractAddress": "0xec3bf579b83bd7141147df786e1f7354ec2e9f8a",
      "function": "createRedeem(address,uint256,address[],uint16[],uint64,uint64)",
      "arguments": [
        "0x03c36763E271211961e9E42DC6D600F9cF0Ea417",
        "1000000000000000000000",
        "[0xe450584F78be9DdeA56A535125Aa400F67BAbA36, 0xA8C07247e37BA87b6E38e9f2059d942C5dA0379c]",
        "[2000, 8000]",
        "300",
        "3000"
      ],
      "transaction": {
        "from": "0xe450584f78be9ddea56a535125aa400f67baba36",
        "to": "0xec3bf579b83bd7141147df786e1f7354ec2e9f8a",
        "gas": "0x92ea6",
        "value": "0x0",
        "input": "0xce0f32f900000000000000000000000003c36763e271211961e9e42dc6d600f9cf0ea41700000000000000000000000000000000000000000000003635c9adc5dea0000000000000000000000000000000000000000000000000000000000000000000c00000000000000000000000000000000000000000000000000000000000000120000000000000000000000000000000000000000000000000000000000000012c0000000000000000000000000000000000000000000000000000000000000bb80000000000000000000000000000000000000000000000000000000000000002000000000000000000000000e450584f78be9ddea56a535125aa400f67baba36000000000000000000000000a8c07247e37ba87b6e38e9f2059d942c5da0379c000000000000000000000000000000000000000000000000000000000000000200000000000000000000000000000000000000000000000000000000000007d00000000000000000000000000000000000000000000000000000000000001f40",
        "nonce": "0x2d6c7",
        "chainId": "0x66eee"
      },
      "additionalContracts": [
        {
          "transactionType": "CREATE2",
          "address": "0x58307856c33f21a314af7ff1555653bdc6aeea38",
          "initCode": "0x3d602d80600a3d3981f3363d3d373d3d3d363d735f8e9714937c2246b56321f41896bc334c3280b35af43d82803e903d91602b57fd5bf3"
        }
      ],
      "isFixedGasLimit": false
    }
  ],
  "receipts": [
    {
      "status": "0x1",
      "cumulativeGasUsed": "0xb1c69",
      "logs": [
        {
          "address": "0x58307856c33f21a314af7ff1555653bdc6aeea38",
          "topics": [
            "0xc7f505b2f371ae2175ee4913f4499e1f2633a7b5936321eed1cdaeb6115181d2"
          ],
          "data": "0x0000000000000000000000000000000000000000000000000000000000000001",
          "blockHash": "0x1689b1480fc2091e2d0506a6ad9ca92f4bf0cc80d0d63837df91a7212d34fb66",
          "blockNumber": "0x6b74786",
          "transactionHash": "0x279a80f92c378e1e00193b05f21868b01f5d8fa2d2c80c733683b2e53dc1d450",
          "transactionIndex": "0x7",
          "logIndex": "0x4",
          "removed": false
        },
        {
          "address": "0x03c36763e271211961e9e42dc6d600f9cf0ea417",
          "topics": [
            "0xddf252ad1be2c89b69c2b068fc378daa952ba7f163c4a11628f55a4df523b3ef",
            "0x000000000000000000000000ec3bf579b83bd7141147df786e1f7354ec2e9f8a",
            "0x00000000000000000000000058307856c33f21a314af7ff1555653bdc6aeea38"
          ],
          "data": "0x00000000000000000000000000000000000000000000003635c9adc5dea00000",
          "blockHash": "0x1689b1480fc2091e2d0506a6ad9ca92f4bf0cc80d0d63837df91a7212d34fb66",
          "blockNumber": "0x6b74786",
          "transactionHash": "0x279a80f92c378e1e00193b05f21868b01f5d8fa2d2c80c733683b2e53dc1d450",
          "transactionIndex": "0x7",
          "logIndex": "0x5",
          "removed": false
        },
        {
          "address": "0xec3bf579b83bd7141147df786e1f7354ec2e9f8a",
          "topics": [
            "0x9524a6b3c8c58558905c6ea32678e1b3b9d7ccf7a1ec9da6e061ed46d3af14e1"
          ],
          "data": "0x00000000000000000000000058307856c33f21a314af7ff1555653bdc6aeea3800000000000000000000000003c36763e271211961e9e42dc6d600f9cf0ea41700000000000000000000000000000000000000000000003635c9adc5dea0000000000000000000000000000000000000000000000000000000000000000000e00000000000000000000000000000000000000000000000000000000000000140000000000000000000000000000000000000000000000000000000000000012c0000000000000000000000000000000000000000000000000000000000000bb80000000000000000000000000000000000000000000000000000000000000002000000000000000000000000e450584f78be9ddea56a535125aa400f67baba36000000000000000000000000a8c07247e37ba87b6e38e9f2059d942c5da0379c000000000000000000000000000000000000000000000000000000000000000200000000000000000000000000000000000000000000000000000000000007d00000000000000000000000000000000000000000000000000000000000001f40",
          "blockHash": "0x1689b1480fc2091e2d0506a6ad9ca92f4bf0cc80d0d63837df91a7212d34fb66",
          "blockNumber": "0x6b74786",
          "transactionHash": "0x279a80f92c378e1e00193b05f21868b01f5d8fa2d2c80c733683b2e53dc1d450",
          "transactionIndex": "0x7",
          "logIndex": "0x6",
          "removed": false
        }
      ],
      "logsBloom": "0x80000000000000000000000000040000000000000000000000004000000100000000000000000000000000000000000000000800000000000004000000004000000000000000000000000008000000000001000000000400000000000000000000000000040000000040000000000000000000000000000000000010100000000000004000000000000800000000000000000000000080008000000000000000000000000000000220000000000000000000000000000000000000000000000000000002000000000000000000000000000000000004000000000000000000000000000000000000000000000000000000000000010000000000020000000000",
      "type": "0x2",
      "transactionHash": "0x279a80f92c378e1e00193b05f21868b01f5d8fa2d2c80c733683b2e53dc1d450",
      "transactionIndex": "0x7",
      "blockHash": "0x1689b1480fc2091e2d0506a6ad9ca92f4bf0cc80d0d63837df91a7212d34fb66",
      "blockNumber": "0x6b74786",
      "gasUsed": "0x6eda8",
      "effectiveGasPrice": "0xe727df70",
      "from": "0xe450584f78be9ddea56a535125aa400f67baba36",
      "to": "0xec3bf579b83bd7141147df786e1f7354ec2e9f8a",
      "contractAddress": null,
      "gasUsedForL1": "0x29c1",
      "l1BlockNumber": "0x711482"
    }
  ],
  "libraries": [],
  "pending": [],
  "returns": {},
  "timestamp": 1735881858,
  "chain": 421614,
  "commit": "b5c0f8e"
}