{
  "transactions": [
    {
      "hash": "0x22088a14137db248e28cfd86fe2a168cb1626eacf6965c42811e8b50c47d8d7c",
      "transactionType": "CALL",
      "contractName": null,
      "contractAddress": "0xec3bf579b83bd7141147df786e1f7354ec2e9f8a",
      "function": "createRedeem(address,uint256,address[],uint16[],uint64,uint64)",
      "arguments": [
        "0x03c36763E271211961e9E42DC6D600F9cF0Ea417",
        "1111000000000000000000",
        "[0x97275c14bE84fc5F541516E6c7aE7A9F0a7eBeeA, 0x74F54227B6C8D6B95D2220c83332d84Fe646d3d0]",
        "[2000, 8000]",
        "300",
        "300"
      ],
      "transaction": {
        "from": "0xe450584f78be9ddea56a535125aa400f67baba36",
        "to": "0xec3bf579b83bd7141147df786e1f7354ec2e9f8a",
        "gas": "0x8fd98",
        "value": "0x0",
        "input": "0xce0f32f900000000000000000000000003c36763e271211961e9e42dc6d600f9cf0ea41700000000000000000000000000000000000000000000003c3a38e5ab72fc000000000000000000000000000000000000000000000000000000000000000000c00000000000000000000000000000000000000000000000000000000000000120000000000000000000000000000000000000000000000000000000000000012c000000000000000000000000000000000000000000000000000000000000012c000000000000000000000000000000000000000000000000000000000000000200000000000000000000000097275c14be84fc5f541516e6c7ae7a9f0a7ebeea00000000000000000000000074f54227b6c8d6b95d2220c83332d84fe646d3d0000000000000000000000000000000000000000000000000000000000000000200000000000000000000000000000000000000000000000000000000000007d00000000000000000000000000000000000000000000000000000000000001f40",
        "nonce": "0x2dd05",
        "chainId": "0x66eee"
      },
      "additionalContracts": [
        {
          "transactionType": "CREATE2",
          "address": "0x99f4eedc9f097af074895c06d26e94e83be54417",
          "initCode": "0x3d602d80600a3d3981f3363d3d373d3d3d363d735f8e9714937c2246b56321f41896bc334c3280b35af43d82803e903d91602b57fd5bf3"
        }
      ],
      "isFixedGasLimit": false
    }
  ],
  "receipts": [
    {
      "status": "0x1",
      "cumulativeGasUsed": "0x1086b1",
      "logs": [
        {
          "address": "0x99f4eedc9f097af074895c06d26e94e83be54417",
          "topics": [
            "0xc7f505b2f371ae2175ee4913f4499e1f2633a7b5936321eed1cdaeb6115181d2"
          ],
          "data": "0x0000000000000000000000000000000000000000000000000000000000000001",
          "blockHash": "0xadd79e98fcf341f65404fb2df7de68a17c49b89ce56dba991d6571e89c8bdbcb",
          "blockNumber": "0x6bf9b05",
          "transactionHash": "0x22088a14137db248e28cfd86fe2a168cb1626eacf6965c42811e8b50c47d8d7c",
          "transactionIndex": "0xb",
          "logIndex": "0xa",
          "removed": false
        },
        {
          "address": "0x03c36763e271211961e9e42dc6d600f9cf0ea417",
          "topics": [
            "0xddf252ad1be2c89b69c2b068fc378daa952ba7f163c4a11628f55a4df523b3ef",
            "0x000000000000000000000000ec3bf579b83bd7141147df786e1f7354ec2e9f8a",
            "0x00000000000000000000000099f4eedc9f097af074895c06d26e94e83be54417"
          ],
          "data": "0x00000000000000000000000000000000000000000000003c3a38e5ab72fc0000",
          "blockHash": "0xadd79e98fcf341f65404fb2df7de68a17c49b89ce56dba991d6571e89c8bdbcb",
          "blockNumber": "0x6bf9b05",
          "transactionHash": "0x22088a14137db248e28cfd86fe2a168cb1626eacf6965c42811e8b50c47d8d7c",
          "transactionIndex": "0xb",
          "logIndex": "0xb",
          "removed": false
        },
        {
          "address": "0xec3bf579b83bd7141147df786e1f7354ec2e9f8a",
          "topics": [
            "0x9524a6b3c8c58558905c6ea32678e1b3b9d7ccf7a1ec9da6e061ed46d3af14e1"
          ],
          "data": "0x00000000000000000000000099f4eedc9f097af074895c06d26e94e83be5441700000000000000000000000003c36763e271211961e9e42dc6d600f9cf0ea41700000000000000000000000000000000000000000000003c3a38e5ab72fc000000000000000000000000000000000000000000000000000000000000000000e00000000000000000000000000000000000000000000000000000000000000140000000000000000000000000000000000000000000000000000000000000012c000000000000000000000000000000000000000000000000000000000000012c000000000000000000000000000000000000000000000000000000000000000200000000000000000000000097275c14be84fc5f541516e6c7ae7a9f0a7ebeea00000000000000000000000074f54227b6c8d6b95d2220c83332d84fe646d3d0000000000000000000000000000000000000000000000000000000000000000200000000000000000000000000000000000000000000000000000000000007d00000000000000000000000000000000000000000000000000000000000001f40",
          "blockHash": "0xadd79e98fcf341f65404fb2df7de68a17c49b89ce56dba991d6571e89c8bdbcb",
          "blockNumber": "0x6bf9b05",
          "transactionHash": "0x22088a14137db248e28cfd86fe2a168cb1626eacf6965c42811e8b50c47d8d7c",
          "transactionIndex": "0xb",
          "logIndex": "0xc",
          "removed": false
        }
      ],
      "logsBloom": "0x80200000000000000000000000040000000000000000000000004000000100000000000000000000000000000000000000000000000000000004000000008000000000000000000000000008000000000001000000000400000000000000000000000000000000000040000000000000000000000000000004000010100000000000004000000000000800000000000000000000000080000000000002000000000000400000000020000000000000000000000000000000000000000010000000000002000000000000000000000000000000000004000000000000000000000000000000000000000000000000000000000000000000000000020000000000",
      "type": "0x2",
      "transactionHash": "0x22088a14137db248e28cfd86fe2a168cb1626eacf6965c42811e8b50c47d8d7c",
      "transactionIndex": "0xb",
      "blockHash": "0xadd79e98fcf341f65404fb2df7de68a17c49b89ce56dba991d6571e89c8bdbcb",
      "blockNumber": "0x6bf9b05",
      "gasUsed": "0x6d252",
      "effectiveGasPrice": "0x4340f310",
      "from": "0xe450584f78be9ddea56a535125aa400f67baba36",
      "to": "0xec3bf579b83bd7141147df786e1f7354ec2e9f8a",
      "contractAddress": null,
      "gasUsedForL1": "0xe6b",
      "l1BlockNumber": "0x7167f8"
    }
  ],
  "libraries": [],
  "pending": [],
  "returns": {},
  "timestamp": 1736154821,
  "chain": 421614,
  "commit": "fff7eb0"
}