{
  "transactions": [
    {
      "hash": "0xa91bf03fede733214f0a3460f858cf3ea24a93b7b22dd1e3c60a3e53d3be6e86",
      "transactionType": "CALL",
      "contractName": null,
      "contractAddress": "0xec3bf579b83bd7141147df786e1f7354ec2e9f8a",
      "function": "createRedeem(address,uint256,address[],uint16[],uint64,uint64)",
      "arguments": [
        "0x03c36763E271211961e9E42DC6D600F9cF0Ea417",
        "1111000000000000000000",
        "[0x1e6754B227C6ae4B0ca61D82f79D60660737554a, 0x5FF137D4b0FDCD49DcA30c7CF57E578a026d2789]",
        "[2000, 8000]",
        "300",
        "3000"
      ],
      "transaction": {
        "from": "0xe450584f78be9ddea56a535125aa400f67baba36",
        "to": "0xec3bf579b83bd7141147df786e1f7354ec2e9f8a",
        "gas": "0x91687",
        "value": "0x0",
        "input": "0xce0f32f900000000000000000000000003c36763e271211961e9e42dc6d600f9cf0ea41700000000000000000000000000000000000000000000003c3a38e5ab72fc000000000000000000000000000000000000000000000000000000000000000000c00000000000000000000000000000000000000000000000000000000000000120000000000000000000000000000000000000000000000000000000000000012c0000000000000000000000000000000000000000000000000000000000000bb800000000000000000000000000000000000000000000000000000000000000020000000000000000000000001e6754b227c6ae4b0ca61d82f79d60660737554a0000000000000000000000005ff137d4b0fdcd49dca30c7cf57e578a026d2789000000000000000000000000000000000000000000000000000000000000000200000000000000000000000000000000000000000000000000000000000007d00000000000000000000000000000000000000000000000000000000000001f40",
        "nonce": "0x2d6c9",
        "chainId": "0x66eee"
      },
      "additionalContracts": [
        {
          "transactionType": "CREATE2",
          "address": "0x4c22cd6b51c50a0403bbbd999534bbb69e89d9c1",
          "initCode": "0x3d602d80600a3d3981f3363d3d373d3d3d363d735f8e9714937c2246b56321f41896bc334c3280b35af43d82803e903d91602b57fd5bf3"
        }
      ],
      "isFixedGasLimit": false
    }
  ],
  "receipts": [
    {
      "status": "0x1",
      "cumulativeGasUsed": "0x1b9122",
      "logs": [
        {
          "address": "0x4c22cd6b51c50a0403bbbd999534bbb69e89d9c1",
          "topics": [
            "0xc7f505b2f371ae2175ee4913f4499e1f2633a7b5936321eed1cdaeb6115181d2"
          ],
          "data": "0x0000000000000000000000000000000000000000000000000000000000000001",
          "blockHash": "0x96464e08aafec8339f50403f0c1255178fe86cad2da865e2bc15224c1af032fd",
          "blockNumber": "0x6b751b5",
          "transactionHash": "0xa91bf03fede733214f0a3460f858cf3ea24a93b7b22dd1e3c60a3e53d3be6e86",
          "transactionIndex": "0x28",
          "logIndex": "0x14",
          "removed": false
        },
        {
          "address": "0x03c36763e271211961e9e42dc6d600f9cf0ea417",
          "topics": [
            "0xddf252ad1be2c89b69c2b068fc378daa952ba7f163c4a11628f55a4df523b3ef",
            "0x000000000000000000000000ec3bf579b83bd7141147df786e1f7354ec2e9f8a",
            "0x0000000000000000000000004c22cd6b51c50a0403bbbd999534bbb69e89d9c1"
          ],
          "data": "0x00000000000000000000000000000000000000000000003c3a38e5ab72fc0000",
          "blockHash": "0x96464e08aafec8339f50403f0c1255178fe86cad2da865e2bc15224c1af032fd",
          "blockNumber": "0x6b751b5",
          "transactionHash": "0xa91bf03fede733214f0a3460f858cf3ea24a93b7b22dd1e3c60a3e53d3be6e86",
          "transactionIndex": "0x28",
          "logIndex": "0x15",
          "removed": false
        },
        {
          "address": "0xec3bf579b83bd7141147df786e1f7354ec2e9f8a",
          "topics": [
            "0x9524a6b3c8c58558905c6ea32678e1b3b9d7ccf7a1ec9da6e061ed46d3af14e1"
          ],
          "data": "0x0000000000000000000000004c22cd6b51c50a0403bbbd999534bbb69e89d9c100000000000000000000000003c36763e271211961e9e42dc6d600f9cf0ea41700000000000000000000000000000000000000000000003c3a38e5ab72fc000000000000000000000000000000000000000000000000000000000000000000e00000000000000000000000000000000000000000000000000000000000000140000000000000000000000000000000000000000000000000000000000000012c0000000000000000000000000000000000000000000000000000000000000bb800000000000000000000000000000000000000000000000000000000000000020000000000000000000000001e6754b227c6ae4b0ca61d82f79d60660737554a0000000000000000000000005ff137d4b0fdcd49dca30c7cf57e578a026d2789000000000000000000000000000000000000000000000000000000000000000200000000000000000000000000000000000000000000000000000000000007d00000000000000000000000000000000000000000000000000000000000001f40",
          "blockHash": "0x96464e08aafec8339f50403f0c1255178fe86cad2da865e2bc15224c1af032fd",
          "blockNumber": "0x6b751b5",
          "transactionHash": "0xa91bf03fede733214f0a3460f858cf3ea24a93b7b22dd1e3c60a3e53d3be6e86",
          "transactionIndex": "0x28",
          "logIndex": "0x16",
          "removed": false
        }
      ],
      "logsBloom": "0x80000000800000000000000000040000000000000400000000004000000100000000000000000000000000000000000000000000000000000004000000000000000000000000008000000008000000000001000002000400000000000000000000000000000000000040000000000000000000000000000000000010100000000000004000000000000800000000000000000000000080000000100000000000000000000000000020000000000000000000000000000000000000000000000000000002000001000000000000000000000000000004000000000000000000000000000000000000000000000000000000000000000000000000020000000000",
      "type": "0x2",
      "transactionHash": "0xa91bf03fede733214f0a3460f858cf3ea24a93b7b22dd1e3c60a3e53d3be6e86",
      "transactionIndex": "0x28",
      "blockHash": "0x96464e08aafec8339f50403f0c1255178fe86cad2da865e2bc15224c1af032fd",
      "blockNumber": "0x6b751b5",
      "gasUsed": "0x6e058",
      "effectiveGasPrice": "0xf96f9740",
      "from": "0xe450584f78be9ddea56a535125aa400f67baba36",
      "to": "0xec3bf579b83bd7141147df786e1f7354ec2e9f8a",
      "contractAddress": null,
      "gasUsedForL1": "0x1c71",
      "l1BlockNumber": "0x7114e1"
    }
  ],
  "libraries": [],
  "pending": [],
  "returns": {},
  "timestamp": 1735883057,
  "chain": 421614,
  "commit": "b5c0f8e"
}